:100000000C9438350C9469350C9469350C94693529
:100010000C9469350C947BB40C9469350D943B1F9A
:100020000C9406B40C9469350C9469350C946935BC
:100030000D9438380C9469350C94148C0D94FA276F
:100040000C9469350C9407F70C9469350C94693558
:100050000C9469350C9469350C9469350C94C77C03
:100060000C9469350D94B6220C9469350C9469355D
:100070000C9469350C9469350C9469350C94693588
:100080000C9469350C9469350C9469350C94693578
:100090000D9472220C9469350C9469350C94693571
:1000A0000C9469350C9469350D9472270C9469355C
:1000B0000C9469350D9454270C9469350C9469356A
:1000C0000C9469350C9469350C9469350D94C726E8
:1000D0000C9469350C9469350C9469350C94693528
:1000E0000C946935E37CF17CFF7C0C7D1E7D257DC5
:1000F000477D5D7DF3930F96DF95D495C995BE95A9
:10010000B395329622968C955E954295739B249B6F
:10011000739B769BE79B169C739B739B359C29F383
:1001200034F3D5F2A2F271F236F670F39AF431F5A7
:1001300088F5A5F5DDF58902C901530145022902BB
:100140001D0281026B024B0297015702B3016D0140
:10015000B1011D02F301BD02EF01A30279011702F3
:100160004901590167016702730261029502430266
:100170001B021F02A9016701D101BD01BF022702B5
:10018000210255010302BB02650193021302F5012E
:100190008701930255020F029702B50149024902F5
:1001A000F9014902F90195018F027B013B028501AA
:1001B0009B01CF01F1019301C1029B02FD01B70137
:1001C000B9025902084AD73B3BCE016E84BCBFFD41
:1001D000C12F3D6C74319ABD56833DDA3D00C77F17
:1001E00011BED9E4BB4C3E916BAAAABE00000080B0
:1001F0003F05A84CCDB2D44EB93836A9020C50B93F
:10020000918688083CA6AAAA2ABE000000803F0763
:10021000634236B79BD8A71A39685618AEBAAB55A1
:100220008C1D3CB7CC5763BD6DEDFD753EF6177266
:1002300031BF000000803F08000000BE9224491238
:100240003EABAAAA2ABECDCCCC4C3E00000080BE5C
:10025000ABAAAAAA3E00000000BF000000803F0039
:1002600000000000084178D3BB4387D1133D190E2D
:100270003CC3BD4282AD2B3E68EC8276BED98FE195
:10028000A93E4C80EFFFBE01C4FF7F3F000000008D
:1002900000000D9499120D94CF2D0D943B630D9495
:1002A00044600D941C5E0D94FA0F0D94645A0D94E5
:1002B000F23C0D94A3120D94CF5C0D94A1750D9496
:1002C000CC2C0D9461420D9499170D94AB5A0D945A
:1002D0001C130D94E42E0D94F5620D942B100D94C7
:1002E000B0560D94D7400D94DC3F0D9428420D94E8
:1002F00013290D948A120D94B0820D946F590D94A8
:1003000097630D94C32C0D9493670D94C6820D943E
:10031000CF5A0D94CC9A0D94ED5D0D9467390D94E0
:1003200011630D94417D0D94E9820D949D620D94AD
:100330001D100D9453580D94C9820D9495600D9421
:10034000F1280D944F560D941F630D947B820D94EC
:1003500026590D94F4120D94DE2A0D94FC620D942E
:1003600049600D942F100D9427100D94185B0D9477
:1003700018830D94D33F0D945A110D9408130D94C6
:100380004B6D0D9449590D944D100D94B95B0D941E
:10039000E6600D940B100D945E5D0D94FA6C0D9457
:1003A000E3820D94FE120D94BD2C0D941E290D9424
:1003B00050110D9434630D94713D0D94AA660D9403
:1003C000655B0D94E47D0D947A280D94F4630D948F
:1003D00003630D9476560D94D42C0D94A5560D946C
:1003E0003D100D94E6820D9435100D94D35A0D9462
:1003F00029560D949A620D940B770D9404830D94F5
:10040000C63A0D94802D0D94715A0D940A640D9482
:10041000245D0D9468690D9424420D94053A0D9461
:10042000F25A0D9426630D94C15A0D941A200D941E
:100430008F120D9469110D94DB120D9442100D94DE
:10044000EA120D94525A0D9431690D945F110D9476
:10045000365A0D9404100D945E570D9464550D9406
:10046000B8110D941B610D942D590D9433200D94EA
:10047000896E0D949C590D94B9820D94145E0D945F
:1004800077110D9437590D94D1120D94FE0F0D94E0
:10049000CFAB0D948C620D9419100D94FE280D9421
:1004A000CC2A0D9455110D9418590D94D55A0D94CC
:1004B00021100D9424830D941F590D94CA3F0D945F
:1004C000CD400D94BD120D94735C0D94E9390D94DB
:1004D000AD120D94EE620D9413100D9449100D940D
:1004E000402F0D9462560D94B5120D94225C0D941C
:1004F00073110D9464110D946C560D9462610D94FA
:10050000E9400D940F100D94A15C0D9491300D9461
:10051000A3670D9408100D940A630D946E110D9449
:10052000A0620D943C6D0D94205A0D94C7120D9449
:10053000065B0D942F5C0D94FB820D94762E0D942A
:100540003C560D9423690D9485120D9481610D9490
:1005500043100D94C13F0D9420420D9452100D9400
:10056000A3640D9493750D94D23A0D9418630D9471
:100570002D630D941B830D947B5A0D9439100D94AB
:1005800012130D94F2820D941B3C0D94185C6E6155
:100590006E00696E66004E414E494E495459494EAF
:1005A00046CDCCCC3D0AD7233C17B7D13877CC2BDE
:1005B000329595E6241FB14F0A000020410000C883
:1005C0004200401C4620BCBE4CCA1B0E5AAEC59D04
:1005D0007400407A10F35A00A0724E18090010A55A
:1005E000D4E80000E87648170000E40B540200004D
:1005F000CA9A3B000000E1F50500008096980000D3
:100600000040420F000000A08601000000102700FB
:10061000000000E803000000006400000000000A81
:1006200000000000000100000000002C76D888DCEB
:10063000674F0823DFC1DFAE59E1B1B796E5E3E4C8
:1006400053C63AE651997696E8E6C28426EB898C41
:100650009B62ED407C6FFCEFBC9C9F40F2BAA56FA3
:10066000A5F490055A2AF75C936B6CF9676DC11B72
:10067000FCE0E40D47FEF520E6B500D0ED902E033A
:1006800000943577050080841E080000204E0A0083
:100690000000C80C333333330F986E12831141EFCF
:1006A0008D2114893BE65516CFFEE6DB18D1844B2D
:1006B000381BF77C1D901DA4BBE424203284725E9D
:1006C000228100C9F124ECA1E53D276364696E6FC6
:1006D00070737578585B0064756D7020636C65612C
:1006E0007265640A006E6F2064756D7020617661BA
:1006F000696C61626C650A00443231202D2072659C
:1007000061642063726173682064756D700A006EA5
:100710006F2064756D7020617661696C61626C65D3
:100720000A0064756D7020636F6D706C657465642C
:1007300020696E20256C756D730A0058464C415334
:100740004800454550524F4D005352414D00442DF5
:1007500031202D20456E646C657373206C6F6F7053
:100760000A005344207072696E74696E6720627962
:1007700074652000416374697665204578747275EC
:100780006465723A2000496E76616C696420657810
:10079000747275646572005A204F666673657400E2
:1007A000556E6B6E6F776E20636F6D6D616E643A20
:1007B0002022004D32303020496E76616C69642011
:1007C000657874727564657220007A5F6D61783A3D
:1007D00020007A5F6D696E3A2000795F6D61783A2A
:1007E0002000795F6D696E3A2000785F6D61783A1C
:1007F00020006F70656E005452494747455245448A
:1008000000785F6D696E3A20005265706F7274698E
:100810006E6720656E6473746F7020737461747595
:10082000730053494C454E54004E4F524D414C00BD
:100830002553204D4F44453A2050657263656E74D0
:1008400020646F6E653A20256868643B2070726989
:100850006E742074696D652072656D61696E696E74
:100860006720696E206D696E733A2025643B2043D2
:1008700068616E676520696E206D696E733A202528
:10088000640A00456E642066696C65206C69737447
:1008900000426567696E2066696C65206C697374D7
:1008A00000556E6B6E6F776E20256320636F6465F5
:1008B0003A2025730A000A50494E44412074656D60
:1008C00070657261747572653A20252E3166205A02
:1008D00020736869667420286D6D293A20252E33AF
:1008E00066000A537465703A2025642F360A000AA0
:1008F000537465703A2025642F362028736B697015
:10090000706564290A50494E44412074656D7065D4
:100910007261747572653A202564205A2073686983
:10092000667420286D6D293A300A000A5A45524FE4
:100930003A20252E33660A00737461727420746540
:100940006D70657261747572653A20252E31660A84
:100950000025642020252E326600255320583A2099
:10096000252E356620593A20252E3566205A3A2004
:10097000252E35660A00536C6565702E2E2E0045B7
:10098000303A25642052504D0A50524E303A256478
:100990002052504D0A00256400416476616E636503
:1009A000204B3D004B206F7574206F6620616C6C8E
:1009B0006F7765642072616E67652100200A200AE6
:1009C00020004D3232302053256900255346696C92
:1009D000616D656E742073657474696E67733A2017
:1009E00044697361626C65640A00255346696C61F1
:1009F0006D656E742073657474696E67733A0A2549
:100A0000532020204D3230302044252E32660A00FB
:100A10002553526574726163743A20533D4C656E80
:100A200067746820286D6D2920463A5370656564A7
:100A300020286D6D2F6D29205A3A205A4C69667412
:100A400020286D6D290A25532020204D3230372073
:100A500053252E32662046252E3266205A252E3208
:100A6000660A25535265636F7665723A20533D4599
:100A700078747261206C656E67746820286D6D29CA
:100A800020463A537065656420286D6D2F6D290AE4
:100A900025532020204D3230382053252E32662019
:100AA00046252E32660A25534175746F2D526574A2
:100AB000726163743A20533D3020746F206469730F
:100AC00061626C652C203120746F20696E746572D0
:100AD0007072657420657874727564652D6F6E6CC4
:100AE00079206D6F76657320617320726574726111
:100AF000637473206F72207265636F7665726965C7
:100B0000730A25532020204D323039205325640AA2
:100B10000025535049442068656174626564207300
:100B2000657474696E67733A0A25532020204D332B
:100B300030342050252E32662049252E326620443E
:100B4000252E32660A00255350494420736574747B
:100B5000696E67733A0A25532020204D33303120C7
:100B600050252E32662049252E32662044252E320D
:100B7000660A002553537465707320706572207582
:100B80006E69743A0A255320204D39322058252E9B
:100B900032662059252E3266205A252E326620458F
:100BA000252E32660A25535553746570207265737D
:100BB0006F6C7574696F6E3A200A2553204D33357A
:100BC000302058256420592564205A256420452565
:100BD000640A25534D6178696D756D20666565649D
:100BE0007261746573202D206E6F726D616C2028A8
:100BF0006D6D2F73293A0A255320204D3230332052
:100C000058252E32662059252E3266205A252E323E
:100C1000662045252E32660A25534D6178696D752B
:100C20006D20666565647261746573202D20737430
:100C300065616C746820286D6D2F73293A0A2553FD
:100C400020204D3230332058252E32662059252E53
:100C50003266205A252E32662045252E32660A2518
:100C6000534D6178696D756D20616363656C657264
:100C70006174696F6E202D206E6F726D616C20281B
:100C80006D6D2F7332293A0A255320204D323031B1
:100C90002058256C752059256C75205A256C7520B7
:100CA00045256C750A25534D6178696D756D206118
:100CB0006363656C65726174696F6E202D20737457
:100CC00065616C746820286D6D2F7332293A0A258E
:100CD0005320204D3230312058256C752059256C19
:100CE00075205A256C752045256C750A255341637E
:100CF00063656C65726174696F6E3A20503D707205
:100D0000696E742C20523D726574726163742C207C
:100D1000543D74726176656C0A255320204D323043
:100D2000342050252E32662052252E32662054253E
:100D30002E32660A2553416476616E6365642076BF
:100D400061726961626C65733A20533D4D696E2032
:100D5000666565647261746520286D6D2F73292C3A
:100D600020543D4D696E2074726176656C20666515
:100D700065647261746520286D6D2F73292C204283
:100D80003D6D696E696D756D207365676D656E7417
:100D90002074696D6520286D73292C20583D6D6184
:100DA00078696D756D205859206A65726B20286DC1
:100DB0006D2F73292C20205A3D6D6178696D756DFA
:100DC000205A206A65726B20286D6D2F73292C20A4
:100DD00020453D6D6178696D756D2045206A6572AD
:100DE0006B20286D6D2F73290A255320204D32303A
:100DF000352053252E32662054252E32662042257A
:100E00002E32662058252E32662059252E32662035
:100E10005A252E32662045252E32660A2553486F04
:100E20006D65206F666673657420286D6D293A0ABA
:100E3000255320204D3230362058252E3266205939
:100E4000252E3266205A252E32660A004625642059
:100E500025640A004D4D55203C3D20274625642041
:100E60002564270A004361703A25533A25630A0036
:100E7000455854454E4445445F4D32300041555429
:100E80004F5245504F52545F504F534954494F4E63
:100E9000004155544F5245504F52545F46414E53B6
:100EA000004155544F5245504F52545F54454D5098
:100EB00000005A30005A3100593000593100583082
:100EC00000583100456E642073746F70732064693C
:100ED00061670044656C6574696F6E206661696C5A
:100EE00065642C2046696C653A200046696C652073
:100EF00064656C657465643A004E6F7420534420D9
:100F00007072696E74696E67005072696E742073D6
:100F100061766564005344207072696E742070615C
:100F200075736564004F4B004241440052414D428D
:100F30006F2046414E200043524153485F43414E8B
:100F400043454C0043524153485F5245434F564539
:100F5000520043524153485F5245434F5645520059
:100F600022283229004475706C69636174652054CD
:100F70002D636F64652069676E6F7265642E00492A
:100F80006E76616C6964205420636F64652E002C5A
:100F9000204D39303720452069676E6F72656400D7
:100FA0006E6F2076616C696420636F6D6D616E6435
:100FB000002C20002C20002C20006E2F61002C2003
:100FC000002C20002C20006E2F6100503A00576149
:100FD000697420666F722050494E444120746172DA
:100FE0006765742074656D70657261747572653AB9
:100FF000004155544F004C414E472053454C20462C
:101000004F5243454400256925250A0025692525B9
:101010000A00222831290030303030303030302D75
:10102000303030302D303030302D303030302D30C9
:10103000303030303030303030303000205555498D
:10104000443A0031002045585452554445525F43BC
:101050004F554E543A005072757361206933204DDC
:101060004B335300204D414348494E455F5459503E
:10107000453A00312E3000206261736564206F6E46
:10108000204D61726C696E204649524D5741524560
:101090005F55524C3A68747470733A2F2F676974B5
:1010A0006875622E636F6D2F707275736133642F74
:1010B00050727573612D4669726D7761726520504B
:1010C000524F544F434F4C5F56455253494F4E3A3F
:1010D000004649524D574152455F4E414D453A50A9
:1010E000727573612D4669726D7761726520004D6E
:1010F00031313320530020423A0020453A00543A1F
:10110000006F6B20006E2F61003F546F736869623F
:101110006120466C6173684169722047657449506B
:10112000206661696C65640A002569206D696E2C12
:101130002025692073656300496E76616C696420BF
:101140004D20636F64653A2025730A004D6573680E
:1011500020626564206C6576656C696E67206E6FD1
:1011600074206163746976652E002020000A4D6545
:1011700061737572656420706F696E74733A000AEA
:101180005A20736561726368206865696768743A9C
:1011900020004E756D20582C593A200050494E447D
:1011A000412070726F62652063616C696272617464
:1011B000696F6E2073746172740047323820573043
:1011C000004E6F2050494E444120746865726D692D
:1011D00073746F7200736574006E6F7A7A6C650059
:1011E0004D424C0046520042656174004C7A004CFE
:1011F000616E67005265760046697200534E206941
:101200006E76616C696400534E004D323800524571
:10121000534554004D4D55524553004D32340075E1
:10122000766C6F007468780046414E0046414E501F
:10123000494E5453540050524E0050696E6700504E
:1012400052555341005345545F43484F505F00533C
:1012500045545F535445505F005345545F574156C2
:10126000455F00544D435F0043524153485F434143
:101270004E43454C0043524153485F5245434F56FD
:1012800045520043524153485F44455445435445F9
:10129000440043524153485F004D3120004D30001F
:1012A0004D31313700472D636F646520736C69637E
:1012B000656420666F722061206469666665726588
:1012C0006E74206C6576656C2E20436F6E74696E4B
:1012D00075653F00472D636F646520736C696365B6
:1012E0006420666F72206120646966666572656E4F
:1012F00074206C6576656C2E20506C65617365207A
:1013000072652D736C69636520746865206D6F6408
:10131000656C20616761696E2E205072696E742061
:1013200063616E63656C6C65642E00472D636F644A
:101330006520736C6963656420666F722061206E3E
:1013400065776572206669726D776172652E2050CF
:101350006C6561736520757064617465207468657F
:10136000206669726D776172652E205072696E74A5
:101370002063616E63656C6C65642E00472D636F3E
:10138000646520736C6963656420666F72206120F8
:101390006E65776572206669726D776172652E2061
:1013A000436F6E74696E75653F00472D636F6465AA
:1013B00020736C6963656420666F722061206469C4
:1013C00066666572656E74207072696E74657220EF
:1013D000747970652E20436F6E74696E75653F0079
:1013E000472D636F646520736C6963656420666F65
:1013F00072206120646966666572656E7420707221
:10140000696E74657220747970652E20506C656108
:1014100073652072652D736C69636520746865203F
:101420006D6F64656C20616761696E2E2050726912
:101430006E742063616E63656C6C65642E0050721F
:1014400065737320746865206B6E6F6220746F2003
:1014500070726568656174206E6F7A7A6C65206160
:101460006E6420636F6E74696E75652E00506C65D6
:1014700061736520707265737320746865206B6E8C
:101480006F6220746F20756E6C6F61642066696C8A
:10149000616D656E740052656D6F7665206F6C646A
:1014A0002066696C616D656E7420616E6420707277
:1014B00065737320746865206B6E6F6220746F2093
:1014C0007374617274206C6F6164696E67206E65FD
:1014D000772066696C616D656E742E00616E6420A4
:1014E000707265737320746865206B6E6F6200495B
:1014F0006E736572742066696C616D656E7400430D
:101500006F6C6F72206E6F7420636F72726563749C
:101510000046696C616D656E74206E6F74206C6F2F
:1015200061646564004368616E67656420636F721F
:10153000726563746C793F004C6F6164696E6720FB
:10154000636F6C6F72004368616E676520737563CB
:10155000636573732100506C65617365206F7065FE
:101560006E2069646C657220616E642072656D6FB7
:1015700076652066696C616D656E74206D616E754F
:10158000616C6C792E005761732066696C616D65C2
:101590006E7420756E6C6F61642073756363657320
:1015A0007366756C3F00506C65617365207570677C
:1015B000726164652E004E6577206669726D776191
:1015C00072652076657273696F6E20617661696CF1
:1015D00061626C653A0057616974696E6720666F75
:1015E000722050494E44412070726F626520636FD3
:1015F0006F6C696E6700437261736820646574651F
:10160000637465642E20526573756D652070726910
:101610006E743F004372617368206465746563741F
:1016200065642E0043686F6F73652065787472750A
:101630006465723A0043686F6F73652066696C6118
:101640006D656E743A004E6F206D6F76652E005397
:101650007461626C6520616D6269656E7420746589
:101660006D70657261747572652032312D3236434A
:10167000206973206E656564656420612072696706
:101680006964207374616E6420697320726571757A
:10169000697265642E00506C656173652072756EA9
:1016A0002058595A2063616C6962726174696F6E67
:1016B0002066697273742E005761697420666F72B8
:1016C00020757365722E2E2E00435A5058003B53DE
:1016D000006164635F696E6974000A204F72696714
:1016E000696E616C2050727573612069330A202025
:1016F0002050727573612052657365617263680072
:10170000200A200A200A2000416C6C204461746188
:101710000053657276696365207072657000536866
:10172000697070696E6720707265700053746174BF
:10173000697374696373004C616E677561676500F6
:1017400045524153494E4720616C6C20646174617D
:1017500000466163746F72792052455345540044CA
:10176000495341424C454400454E41424C4544009A
:10177000202873656E736F7220626F6172642072CD
:1017800065766973696F6E3A2553290A0046536579
:101790006E736F7220255300494E5434004D4B3305
:1017A000534D4D553253004E4F4D4B3353002E0188
:1017B0004E4F4354554100414C5446414E004A61FE
:1017C0006E202038203230323200436F6D70696CE9
:1017D00065643A2000286E6F6E652C206465666132
:1017E000756C7420636F6E66696729004A616E20AC
:1017F000203820323032322032313A35303A3138E6
:101800000020332E31302E312D34363937007374A9
:1018100061727400534E2075706461746520666156
:10182000696C656400534E20757064617465640072
:10183000435A505800416E206572726F722077686B
:10184000696C652077726974696E6720746F2074A3
:10185000686520534420436172642E002055706CEB
:101860006F616420696E2070726F677265737300B8
:10187000205A3A0020593A0020583A004352415326
:10188000485F4445544543544544585900435241E8
:1018900053485F44455445435445445900435241DD
:1018A00053485F444554454354454458004D3239EC
:1018B0000045787465726E616C2053504920666CE7
:1018C0006173680A58464C415348206973206E6F13
:1018D00074207265732D0A706F6E64696E672E20B6
:1018E0004C616E67756167650A7377697463682018
:1018F000756E617661696C61626C652E002F2F20B8
:10190000616374696F6E3A64756D705F6176616969
:101910006C61626C65005072757361206933204D93
:101920004B3353204F4B2E004372617368446574F0
:101930006563742044495341424C454400437261FD
:10194000736844657465637420454E41424C454458
:10195000210045787472756465722066616E20742A
:101960007970653A200058464C415348206E6F7498
:1019700020726573706F6E64696E672E0020205050
:101980006C616E6E657242756666657242797465E9
:10199000733A20002046726565204D656D6F72793F
:1019A0003A2000207C20417574686F723A20002034
:1019B0004C61737420557064617465643A20002032
:1019C000536F667477617265205265736574002089
:1019D0005761746368646F67205265736574002093
:1019E00042726F776E206F75742052657365740054
:1019F0002045787465726E616C2052657365740061
:101A0000506F7765725570006572726F72207772D1
:101A10006974696E6720746F2066696C6500656E15
:101A20006473746F7073206869743A2000446F6E39
:101A30006520736176696E672066696C652E006F3C
:101A40006B004D4B3353206669726D776172652070
:101A50006465746563746564206F6E204D4B33203C
:101A60007072696E746572004657206372617368A4
:101A70002064657465637465642120596F75206303
:101A8000616E20636F6E74696E7565207072696E29
:101A900074696E672E2044656275672064617461A5
:101AA00020617661696C61626C6520666F7220618D
:101AB0006E616C797369732E20436F6E7461637409
:101AC00020737570706F727420746F207375626DFF
:101AD00069742064657461696C732E00426C616383
:101AE0006B6F7574206F636375727265642E20521C
:101AF00065636F766572207072696E743F0053651E
:101B00006C66746573742077696C6C2062652072F2
:101B1000756E20746F2063616C69627261746520F8
:101B200061636375726174652073656E736F726C47
:101B3000657373207265686F6D696E672E005468F7
:101B4000657265206973207374696C6C2061206E06
:101B500065656420746F206D616B65205A20636138
:101B60006C6962726174696F6E2E20506C6561736E
:101B70006520666F6C6C6F7720746865206D616E90
:101B800075616C2C2063686170746572204669729F
:101B900073742073746570732C2073656374696F3C
:101BA0006E2043616C6962726174696F6E20666C4D
:101BB0006F772E005072696E7465722068617320B1
:101BC0006E6F74206265656E2063616C696272611C
:101BD000746564207965742E20506C65617365208E
:101BE000666F6C6C6F7720746865206D616E7561CF
:101BF0006C2C20636861707465722046697273741E
:101C00002073746570732C2073656374696F6E2024
:101C100043616C6962726174696F6E20666C6F7784
:101C20002E004F6C642073657474696E6773206650
:101C30006F756E642E2044656661756C7420504922
:101C4000442C20457374657073206574632E20776F
:101C5000696C6C206265207365742E005761726E2A
:101C6000696E673A20626F7468207072696E74657D
:101C700072207479706520616E64206D6F74686580
:101C800072626F6172642074797065206368616E3E
:101C90006765642E005761726E696E673A207072D4
:101CA000696E7465722074797065206368616E670F
:101CB00065642E005761726E696E673A206D6F74AD
:101CC000686572626F617264207479706520636800
:101CD000616E6765642E0058595A2063616C6962B1
:101CE000726174696F6E20616C6C207269676874D0
:101CF0002E20536B65772077696C6C2062652063BA
:101D00006F72726563746564206175746F6D617460
:101D10006963616C6C792E0058595A2063616C6953
:101D200062726174696F6E20616C6C2072696768A1
:101D3000742E20582F5920617865732061726520B8
:101D4000736C696768746C7920736B657765642E52
:101D500020476F6F64206A6F62210058595A2063D0
:101D6000616C6962726174696F6E206F6B2E2058AE
:101D70002F592061786573206172652070657270DB
:101D8000656E646963756C61722E20436F6E677255
:101D90006174756C6174696F6E73210058595A20B3
:101DA00063616C6962726174696F6E206661696CEF
:101DB00065642E2052696768742066726F6E7420A5
:101DC00063616C6962726174696F6E20706F696EB5
:101DD00074206E6F7420726561636861626C652E39
:101DE0000058595A2063616C6962726174696F6E40
:101DF000206661696C65642E2046726F6E74206384
:101E0000616C6962726174696F6E20706F696E7463
:101E100073206E6F7420726561636861626C652EF9
:101E20000058595A2063616C6962726174696F6EFF
:101E3000206661696C65642E20506C656173652055
:101E4000636F6E73756C7420746865206D616E7558
:101E5000616C2E0058595A2063616C69627261741A
:101E6000696F6E20636F6D70726F6D697365642E3C
:101E70002052696768742066726F6E742063616CAB
:101E80006962726174696F6E20706F696E74206E22
:101E90006F7420726561636861626C652E005859C9
:101EA0005A2063616C6962726174696F6E20636F3E
:101EB0006D70726F6D697365642E2046726F6E74FB
:101EC0002063616C6962726174696F6E20706F6902
:101ED0006E7473206E6F7420726561636861626CEA
:101EE000652E0058595A2063616C69627261746989
:101EF0006F6E206661696C65642E204265642063A4
:101F0000616C6962726174696F6E20706F696E7462
:101F100020776173206E6F7420666F756E642E007B
:101F2000506C6561736520706C61636520737465C6
:101F3000656C207368656574206F6E2068656174D8
:101F40006265642E0044697374616E636520626526
:101F5000747765656E20746970206F66207468659B
:101F6000206E6F7A7A6C6520616E642074686520DB
:101F700062656420737572666163652068617320B1
:101F80006E6F74206265656E207365742079657468
:101F90002E20506C6561736520666F6C6C6F7720C6
:101FA000746865206D616E75616C2C20636861706A
:101FB0007465722046697273742073746570732C33
:101FC0002073656374696F6E204669727374206C48
:101FD000617965722063616C6962726174696F6EA8
:101FE0002E00506C61636520612073686565742004
:101FF0006F6620706170657220756E646572207402
:102000006865206E6F7A7A6C6520647572696E6798
:10201000207468652063616C6962726174696F6EB7
:10202000206F66206669727374203420706F696E49
:1020300074732E20496620746865206E6F7A7A6CFE
:1020400065206361746368657320746865207061DE
:102050007065722C20706F776572206F66662074D1
:102060006865207072696E74657220696D6D656453
:10207000696174656C792E00506C656173652072BE
:10208000656D6F766520737465656C207368656532
:10209000742066726F6D20686561746265642E00DD
:1020A000497320737465656C207368656574206F6F
:1020B0006E20686561746265643F00536561726398
:1020C00068696E67206265642063616C6962726131
:1020D00074696F6E20706F696E74004D6561737501
:1020E00072696E67207265666572656E63652068E9
:1020F0006569676874206F662063616C69627261EC
:1021000074696F6E20706F696E7400506C656173D6
:102110006520636C65616E20746865206E6F7A7AE5
:102120006C6520666F722063616C696272617469AC
:102130006F6E2E20436C69636B207768656E206438
:102140006F6E652E004175746F20686F6D65004D70
:102150006561737572656420736B6577733A2025CA
:10216000662025660A0046697474696E6720666198
:10217000696C6564203D3E2063616C6962726174C4
:10218000696F6E206661696C65642E0A0043616C3C
:102190006962726174696F6E2073756363657373CE
:1021A0002E0A00416C6C20342063616C696272619C
:1021B00074696F6E20706F696E747320666F756ED0
:1021C000642E0A00312F3400312F3400312F3900B2
:1021D00078797A63616C5F6D656173737572655F41
:1021E000656E7465720A0078797A63616C5F7370EA
:1021F0006972616C382063783D25642063793D25E0
:1022000064207A303D256420647A3D256420726123
:10221000646975733D25642061643D25640A007816
:10222000797A63616C5F7365617263685A206E6F5F
:10223000207369676E616C0A20783D256C64207993
:102240003D256C64207A3D256C640A00204F4E2D9C
:102250005349474E414C20617420783D25642079D4
:102260003D2564207A3D25642061643D25640A0093
:1022700078797A63616C5F7365617263685A2078FC
:102280003D256C6420793D256C64207A3D256C6485
:102290000A0025640A005363616E20636F756E74D3
:1022A000646F776E3A20000A002530327800205B98
:1022B00025662025665D206D6D20706174746572E1
:1022C0006E2063656E7465720A00205B25662025AA
:1022D000665D5B25665D206D6D206469766572675D
:1022E000656E63650A000000F000F801FC03FE075C
:1022F000FE07FE07FE07FC03F801F00000000000E7
:102300000000F000F801FC03FC03FC03FC03F801EF
:10231000F0000000000078797A63616C5F6D6561A0
:1023200073737572655F6C656176650A00203C2089
:10233000005741524E494E473A2046726F6E742004
:10234000706F696E74206E6F74207265616368616E
:10235000626C652E205920636F6F7264696E6174C0
:10236000653A0000000040410000C04000005C43AE
:102370000000C04000005C430000464300004041B4
:102380000000464325642F34004974657261746906
:102390006F6E3A200043616C6962726174696F6E9E
:1023A000206661696C65642120436865636B2074F5
:1023B0006865206178657320616E642072756E2097
:1023C000616761696E2E0022206661696C65643AFE
:1023D000204275666665722066756C6C210022006D
:1023E000256920686F757273202569206D696E7587
:1023F0007465730054494D454F55543A004D313181
:10240000300046756C6C20525820427566666572C5
:1024100000437573746F6D00536174696E200054CE
:10242000657874757200536D6F6F74680047312062
:1024300059252D2E32662045252D2E336600473135
:10244000205825642059252D2E32662045252D2E15
:102450003366006673656E736F725F636865636B86
:10246000706F696E745F7072696E74006673656E0A
:10247000736F722076302E3420696E206661756C21
:10248000742072616E676520342E362D3556202DEE
:1024900020756E636F6E6E65637465640066736548
:1024A0006E736F7220696E20666F72626964646514
:1024B0006E2072616E676520312E352D3356202DCA
:1024C00020636865636B2073656E736F7200312ED5
:1024D0003000312E3500554E4B4E4F574E004C417B
:1024E0003130433A204C696E6561722041647661F7
:1024F0006E6365206D6F64653A20004C4131304356
:102500003A2041646A757374656420452D4A65728A
:102510006B3A2000656E717565696E672022004414
:102520006F6E65207072696E74696E672066696C83
:1025300065004D3131322063616C6C65642E20453D
:102540006D657267656E63792053746F702E0050ED
:1025500072696E7465722073746F70706564206444
:10256000756520746F206572726F72732E204669D4
:102570007820746865206572726F7220616E6420C5
:10258000757365204D39393920746F207265737405
:102590006172742E202854656D7065726174757255
:1025A000652069732072657365742E2053657420ED
:1025B00069742061667465722072657374617274E7
:1025C000696E6729004E6F204C696E65204E756DEF
:1025D000626572207769746820636865636B7375E0
:1025E0006D2C204C617374204C696E653A20004E4E
:1025F0006F20436865636B73756D2077697468201D
:102600006C696E65206E756D6265722C204C61730D
:1026100074204C696E653A2000636865636B73755E
:102620006D206D69736D617463682C204C617374E7
:10263000204C696E653A20004C696E65204E756DC0
:10264000626572206973206E6F74204C6173742010
:102650004C696E65204E756D6265722B312C204C75
:10266000617374204C696E653A200053544F50508A
:1026700045442E00756E6B6E6F776E2073746174B7
:10268000650020302E34206F72206E6577657200F1
:1026900020302E33206F72206F6C646572007001E1
:1026A0002C0190012701B0012201C0011D01F001A0
:1026B00018011002130130020E016002090190029C
:1026C0000401C002FF000003FA004003F50080038C
:1026D000F000D003EB002004E6007004E100E00409
:1026E000DC004005D700C005D2004006CD00D00672
:1026F000C8008007C3003008BE00F008B900C00958
:10270000B400B00AAF00B00BAA00D00CA500000EB8
:10271000A000500F9B00C0109600501291000014B2
:102720008C00C0158700B0178200B0197D00D01B47
:102730007800001E730040206E0090226900F02493
:10274000640040275F0090295A00E02B5500102EAE
:10275000500020304B0010324600E03341009035ED
:102760003C001037370070383200A0392D00B03AE5
:102770002800A03B2300603C1E00103D1900903D46
:102780001400103E0F00703E0A00C03E0500003FDE
:10279000000090137D00B0157800F0177300601AE8
:1027A0006E00F01C6900A01F640050225F0020250D
:1027B0005A00E0275500902A5000202D4B00A02FF2
:1027C0004600F031410010343C00F0353700A037AE
:1027D000320020392D00603A2800703B2300603C15
:1027E0001E00203D1900C03D1400403E0F00A03ED9
:1027F0000A00F03E0500403F0000703FFBFF903FA5
:10280000F6FFB03FF1FFC03FECFFD03FE7FFE03FF6
:10281000E2FFF03FDDFFF03FD8FF20484F54454E28
:102820004420544845524D414C2052554E41574149
:102830005900204845415442454420544845524D92
:10284000414C2052554E4157415900544845524D34
:10285000414C2052554E4157415900424544205465
:102860004845524D414C2052554E41574159002048
:10287000544845524D414C2052554E4157415920E4
:10288000285052454845415420484F54454E44290C
:102890000020544845524D414C2052554E4157411D
:1028A00059202850524548454154204845415442FA
:1028B0004544290050524548454154204552524F05
:1028C000520042454420505245484541542045520B
:1028D000524F52004572723A200020747269676745
:1028E0006572656421004865617465727320737751
:1028F000697463686564206F66662E20003A200064
:10290000506C656173652072657374617274004DFB
:10291000494E54454D50004D494E54454D5020426E
:10292000454400452D6D6F746F722063757272653A
:102930006E74207363616C696E6720656E61626C92
:10294000656400746D63323133305F686F6D655F4D
:10295000656E74657228617865735F6D61736B3D38
:10296000307825303278290A00746D633231333083
:102970005F686F6D655F6578697420746D6332316F
:1029800033305F73675F686F6D696E675F6178652D
:10299000735F6D61736B3D3078253032780A005477
:1029A0004D4320445249564552204F5645525445B6
:1029B0004D500047312058352E302045342E3020E0
:1029C00046313030302E30004731205A302E3230F0
:1029D0002046313030302E30004731205835352EEA
:1029E00030204532352046313430302E30004731EA
:1029F00020592D322E302046313030302E300047D5
:102A00003120583234302E30204532352E302020BF
:102A100046323230302E30004739322045302E30A9
:102A2000004731205A302E332046313030302E309E
:102A3000004731205835352E302045382E3020467D
:102A4000323030302E300047312058352E3020457E
:102A500033322E302046313830302E30004731208E
:102A60005835352E30204533322E30204631303720
:102A7000332E30004731204634303030004D323074
:102A800034205331303030004731205A352046371A
:102A90003230302E30303000473120452D312E3548
:102AA000303030302046323130302E30303030301F
:102AB000004D383300473930004732310047393252
:102AC0002045302E300047312058353020593535DB
:102AD0002045332E363237373300473120583230D5
:102AE00030205935352045302E34393338360047BB
:102AF000312058323030205937352045332E363288
:102B00003737330047312058353020593735204585
:102B1000302E34393338360047312058353020597B
:102B200039352045332E3632373733004731205878
:102B3000323030205939352045302E34393338364B
:102B4000004731205832303020593131352045335B
:102B50002E3632373733004731205835302059313F
:102B600031352045302E343933383600473120583E
:102B7000353020593133352045332E36323737330F
:102B8000004731205832303020593133352045301C
:102B90002E36363137340047312058323030205904
:102BA0003135352045322E36323737330047312024
:102BB00058313030205931353520453200473120E9
:102BC00058373520593135352045322E35004731BB
:102BD000204631303830004731205A302E313530E0
:102BE0002046373230302E303030004731205835D3
:102BF000302059313535004739322045302E3000EC
:102C0000473238004D313039004D313930004D31C7
:102C1000303700726573756C742076616C75653A37
:102C20002025640A0020693D25326420636E743DCE
:102C30002532642076616C3D2532640A00636C7530
:102C400073746572733A0020693D25326420737491
:102C500065703D2532640A00736F72746564207379
:102C6000616D706C65733A00252D3773003A200052
:102C700025642F3600252D32305300203A200025C0
:102C80002D32307300542564004731205A302E34E1
:102C90002046313030302E3000473120592D332E30
:102CA000302046313030302E30004D38330047313F
:102CB00020583130302E30204531322E35204631EB
:102CC0003030302E30004731205836302E302045FD
:102CD000392E302046313030302E30005D2A472AE0
:102CE000312A212A182AFF29EE29D929C829B329EE
:102CF000BD2AB92AB52AB12A982A882A7D2A742A97
:102D0000473120583530205933352045252D2E3375
:102D10006600EB2BD72BCE2BBD2BAD2B972B812B0E
:102D20006C2B572B412B2C2B182B042BEF2ADA2A38
:102D3000C62A496E76616C696420504944206361FB
:102D40006C2E20726573756C74732E204E6F742018
:102D500073746F72656420746F20454550524F4DF7
:102D60002E004D353030004731205A313520463164
:102D7000353030004739310047312058353020593F
:102D80003139302045302046373030300047393037
:102D9000004D3834004D3730322043004731205841
:102DA000313020593138302046343030300047310E
:102DB000205A31302046313330302E303030004D03
:102DC000313430205330004D3130342053300047FF
:102DD0003120452D302E30373530302046323130DD
:102DE000302E3030303030004D313037004D313101
:102DF00037204669727374206C6179657220636153
:102E00006C2E00526573756D696E67207072696E05
:102E1000740050494E44412048656174696E6700F2
:102E200043616C6962726174696F6E20646F6E6574
:102E30000043616C6962726174696E67205A004276
:102E4000656420646F6E6500426564204865617446
:102E5000696E670048656174696E6720646F6E65AE
:102E60002E0048656174696E6700504944206361B3
:102E70006C2E2066696E6973686564005049442051
:102E800063616C2E005072696E7420706175736599
:102E9000640025632533642F25642563005A253695
:102EA0002E32662563005A2020202D2D2D2000254E
:102EB000632533642525002D2D2D00253368686496
:102EC0000025335325337325250055534200202018
:102ED0002000205344002025753E257500203F3EEC
:102EE000257500204625750020463F002046524D9E
:102EF000200025632D2D3A2D2D202000256325331C
:102F000075682025632563002563253032753A25D1
:102F10003032752563256300000E1315110E000075
:102F20000004120912040000001C1F11111F0000F0
:102F30000006191803130C00040E1F041C000000E7
:102F4000040A0A0A0A11110E001F1511151F0000AC
:102F5000000103161C0800000000110A04110A04F5
:102F60000C12120C000000002563252D31382E3183
:102F700038532563005B25735D2563005B25535D36
:102F80002563002563252D31382E31385300252E39
:102F900031305320002563252D31382E31387325EB
:102FA00063002563252D2E31365320002563252E01
:102FB0003135533A257325336400252D32302E32B6
:102FC00030530A00457872656D65207370616E201C
:102FD0006F6620746865205A2076616C7565732170
:102FE0000025642F39006F6B0A00426564206C6510
:102FF00076656C696E67206661696C65642E205326
:10300000656E736F72206469646E277420747269D0
:10301000676765722E20446562726973206F6E2047
:103020006E6F7A7A6C653F2057616974696E6720AC
:10303000666F722072657365742E00312F3900201F
:10304000573A0020453A00543A005A206C69766598
:103050002061646A757374206F7574206F662072C6
:10306000616E67652E2053657474696E6720746F96
:1030700020302E20436C69636B20746F20636F6E69
:1030800074696E75652E005A206C697665206164DE
:103090006A757374206F7574206F662072616E6735
:1030A000652E2053657474696E6720746F2030003C
:1030B00020423A0020453A00543A00494E54340028
:1030C0007265636F7665725F6D616368696E655F77
:1030D00073746174655F61667465725F706F776544
:1030E000725F70616E69632C20696E697469616CCE
:1030F000200050525553412075766C6F00473420A4
:103100005330004D32362053256C75004D3130362A
:103110002053004D32323020532564004731204681
:103120002564004D383200473932204500473120B0
:103130004525302E3366204632373030004D323050
:1031400034205025662052256620542566004731DC
:10315000205A2566005052555341204D424C20566E
:1031600031004731205825662059256620463330E6
:10317000303000506F736974696F6E2072656164DE
:103180002066726F6D20656570726F6D3A004D320A
:1031900033202573002E67636F002C2066656564FD
:1031A0006D756C7469706C793A004665656472611E
:1031B00074653A0047312045252D302E3366204670
:1031C000323730300047312045352046313230002B
:1031D0004D3833004D31303920532564004D31399D
:1031E0003020532564004D3130342053256400478E
:1031F000323820582059004731205A252E33662076
:1032000046383030004731205A252D302E33662085
:1032100046252D302E33660047312045252D302E92
:103220003366204632373030004D383300504F5728
:1032300045522050414E494320444554454354454E
:10324000440055564C4F202D20656E642025640A9D
:103250000055564C4F5F54494E59202D20656E64E1
:103260002025640A00776F726C6420636F6F72644C
:10327000696E617465733A2028252E33662C2025EB
:103280002E33662C20252E3366290A004375727270
:10329000656E7420706F73205A5F415849533A2508
:1032A0002E33660A43757272656E7420706F7320D8
:1032B000455F415849533A252E33660A00416674EA
:1032C00065722077616974696E6720666F72207419
:1032D000656D703A0A43757272656E7420706F7313
:1032E00020585F415849533A252E33660A43757278
:1032F00072656E7420706F7320595F415849533A5C
:10330000252E33660A005265636F766572696E67B3
:10331000207072696E740054656D706572617475A9
:1033200072652063616C6962726174696F6E206698
:1033300061696C65640054656D7065726174757265
:10334000652063616C6962726174696F6E20697374
:103350002066696E697368656420616E64206163CC
:10336000746976652E2054656D702E2063616C69DA
:1033700062726174696F6E2063616E2062652064A1
:10338000697361626C656420696E206D656E75207D
:1033900053657474696E67732D3E54656D702E208D
:1033A00063616C2E0046696C2E2073656E736F72BC
:1033B000004578747275646572004D6F7665205AA9
:1033C000004D6F76652059004D6F7665205800439B
:1033D0007261736820646574656374696F6E2063DD
:1033E000616E0A6265207475726E6564206F6E206E
:1033F0006F6E6C7920696E0A4E6F726D616C206D14
:103400006F6465005741524E494E473A0A43726114
:10341000736820646574656374696F6E0A646973A8
:1034200061626C656420696E0A537465616C7468CE
:10343000206D6F6465004175746F6C6F6164696EB7
:10344000672066696C616D656E7420617661696C78
:1034500061626C65206F6E6C79207768656E20669E
:10346000696C616D656E742073656E736F7220692F
:1034700073207475726E6564206F6E2E2E2E00455B
:1034800052524F523A2046696C616D656E742073DA
:10349000656E736F72206973206E6F74207265732E
:1034A000706F6E64696E672C20706C656173652047
:1034B000636865636B20636F6E6E656374696F6EBE
:1034C0002E004D6F6465206368616E676520696ECC
:1034D0002070726F67726573732E2E2E0054656DA7
:1034E00070657261747572652063616C6962726186
:1034F00074696F6E206661696C65642E20436F6E1F
:1035000074696E756520776974682070726573736D
:10351000696E6720746865206B6E6F622E0054655B
:103520006D70657261747572652063616C69627239
:103530006174696F6E20646F6E652E20436F6E74C8
:10354000696E756520776974682070726573736938
:103550006E6720746865206B6E6F622E007B5B4522
:1035600052523A00332E31302E31005D5B465752B5
:103570003A005D5B54494D3A005D5B464E4D3A0062
:103580005D5B46454D3A005D5B5043443A005B54F9
:1035900046553A007B5B50524E3A39395D007B5BB1
:1035A00050524E3A355D007B5B50524E3A305D00D2
:1035B0007B5B50524E3A395D007B5B50524E3A383D
:1035C0005D007B5B5245533A305D5B46494C3A00A7
:1035D0007B5B5245533A315D5B46494C3A005B5048
:1035E000524E3A005B50464E3A305D005B444941D2
:1035F0003A005D5B4154423A005D5B4154303A0011
:103600005D5B5354423A005B5354303A0020203003
:10361000002020310046494E44410050494E44416B
:1036200000206661696C65642E00207375636365B4
:10363000656465642E004D4D552063616E5F6C6F4F
:1036400061643A004164646974696F6E616C206CF6
:103650006F616420617474656D7074206E722E20C9
:1036600025640A00773235783230636C5F63666DAB
:103670000A00773235783230636C5F656E7465723C
:103680000A0073746172740A004D4D55206C6F61AD
:1036900064206661696C65640020746F6F206C6FD4
:1036A0006E6720657874727573696F6E20707265CD
:1036B00076656E7465640020636F6C642065787451
:1036C000727573696F6E2070726576656E7465646D
:1036D00000506C656173652077616974000000219A
:1036E00010422063308440A550C660E770088129ED
:1036F000914AA16BB18CC1ADD1CEE1EFF131121085
:103700000273325222B5529442F772D6623993183C
:10371000837BB35AA3BDD39CC3FFF3DEE362244390
:103720003420040114E664C774A44485546AA54B8C
:10373000B528850995EEE5CFF5ACC58DD553367224
:103740002611163006D776F6669556B4465BB77ADC
:10375000A719973887DFF7FEE79DD7BCC7C448E5B0
:10376000588668A7784008611802282338CCC9ED2C
:10377000D98EE9AFF9488969990AA92BB9F55AD4C4
:103780004AB77A966A711A500A333A122AFDDBDC7C
:10379000CBBFFB9EEB799B588B3BBB1AABA66C87D0
:1037A0007CE44CC55C222C033C600C411CAEED8FCC
:1037B000FDECCDCDDD2AAD0BBD688D499D977EB664
:1037C0006ED55EF44E133E322E511E700E9FFFBE1C
:1037D000EFDDDFFCCF1BBF3AAF599F788F8891A9EF
:1037E00081CAB1EBA10CD12DC14EF16FE18010A1C6
:1037F00000C230E3200450254046706760B98398CA
:1038000093FBA3DAB33DC31CD37FE35EF3B1029015
:1038100012F322D2323542145277625672EAB5CB95
:10382000A5A89589856EF54FE52CD50DC5E234C365
:1038300024A01481046674476424540544DBA7FA69
:10384000B79987B8975FE77EF71DC73CD7D326F2B5
:10385000369106B01657667676154634564CD96DB5
:10386000C90EF92FE9C899E9898AB9ABA944586505
:103870004806782768C018E1088238A3287DCB5C09
:10388000DB3FEB1EFBF98BD89BBBAB9ABB754A5455
:103890005A376A167AF10AD01AB32A923A2EFD0FD5
:1038A000ED6CDD4DCDAABD8BADE89DC98D267C07A5
:1038B0006C645C454CA23C832CE01CC10C1FEF3EA9
:1038C000FF5DCF7CDF9BAFBABFD98FF89F176E36F5
:1038D0007E554E745E932EB23ED10EF01E7C3C3E61
:1038E0003F2F2A225C0073746172740A004D4D559B
:1038F00032206669726D77617265207665727369D0
:103900006F6E20696E76616C69642E2052657175E8
:10391000697265642076657273696F6E3A206275AC
:10392000696C64206E756D626572202564206F720B
:10393000206869676865722E004D4D55203D3E2018
:10394000276F6B270A004D4D55203D3E20276F6B9A
:10395000270A002564004D4D55203D3E20276F6B02
:10396000272C20726573756D65207072696E740AFC
:10397000004D4D5520726574727920617474656DC7
:103980007074206E722E2025640A004D4D55203D26
:103990003E20276F6B270A00410A004D4D55203C01
:1039A0003D202741270A004D363030004D3630305B
:1039B000204155544F002568687500410A004D4D5F
:1039C00055203C3D202741270A0050300A004D2554
:1039D000640A004D4D55203C3D20274D2564270AA3
:1039E0000057300A004D4D55203C3D2027573027C9
:1039F0000A0053330A004D4D55203C3D20275333D8
:103A0000270A0052300A004D4D55203C3D202752D8
:103A100030270A004B25640A004D4D55203C3D20BF
:103A2000274B2564270A004525640A004D4D552083
:103A30003C3D2027452564270A0055300A004D4D9E
:103A400055203C3D20275530270A0043300A004DC1
:103A50004D55203C3D20274330270A004C25640A61
:103A6000004D4D55203C3D20274C2564270A00542D
:103A700025640A004D4D55203C3D202754256427E0
:103A80000A004D4D55202D20454E41424C454400E5
:103A9000256868750050300A004D310A004D4D55BB
:103AA000203C3D20274D31270050300A004D4D5518
:103AB0002076657273696F6E2076616C6964004D63
:103AC0004D55203D3E202725646F6B270A00257544
:103AD0000053320A004D4D55203C3D2027533227DC
:103AE000004D4D55203D3E202725646F6B270A0071
:103AF0002575004D4D55206E6F7420726573706F83
:103B00006E64696E67202D2044495341424C454400
:103B10000053310A004D4D55203C3D20275331279D
:103B2000004D4D55203D3E2027737461727427006F
:103B30006572726F723A20756E6B6E6F776E206D64
:103B40006F7665006E6F206D6F766500542D636F24
:103B5000646500756E6C6F6164006C6F6164006D0C
:103B60006D755F6765745F726573706F6E736520E6
:103B70002D20626567696E206D6F76653A20006D55
:103B80006D755F6765745F726573706F6E736528BE
:103B9000292072657475726E696E673A2025640A11
:103BA00000556E6C6F6164696E672066696E69733B
:103BB000686564203200556E6C6F61642032005578
:103BC0006E6C6F6164696E672066696E69736865A3
:103BD00064203100556E6C6F61642031004D4D558D
:103BE0002073746172747320726573706F6E646990
:103BF0006E67004D4D55206E6F7420726573706F47
:103C00006E64696E670046696C616D656E74206FE5
:103C10007574206F662072616E6765202564200AC6
:103C2000000000803F555585410000803F0000C8DE
:103C30004100000040555505420000C03F000048CB
:103C4000420000204055558542000070C1ABAAA635
:103C500042000060C10000A0410000C0C000002080
:103C60004100002041ABAA3A41000020C15555D582
:103C700040000048C2555505424D3730312045348B
:103C8000004D373031204533004D3730312045323B
:103C9000004D373031204531004D3730312045302F
:103CA0000046696C616D656E74206E72206F75746C
:103CB000206F662072616E67652100506C656173CC
:103CC0006520757064617465206669726D776172D4
:103CD0006520696E20796F7572204D4D55322E200A
:103CE00057616974696E6720666F722072657365CB
:103CF000742E004D4D55204F4B2E20526573756D1F
:103D0000696E672E2E2E004D4D55204F4B2E2052A2
:103D10006573756D696E6720706F736974696F6E16
:103D20002E2E2E004D4D55204F4B2E205265737573
:103D30006D696E672074656D70657261747572650A
:103D40002E2E2E004669782074686520697373757D
:103D50006520616E64207468656E2070726573738F
:103D600020627574746F6E206F6E204D4D552075F6
:103D70006E69742E00507265737320746865206BD1
:103D80006E6F6220746F20726573756D65206E6F43
:103D90007A7A6C652074656D706572617475726590
:103DA0002E004D4D55206E656564732075736572E8
:103DB00020617474656E74696F6E2E00437574743F
:103DC000696E672066696C616D656E7400506C6524
:103DD0006173652072656D6F76652066696C616DD3
:103DE000656E7420616E64207468656E2070726503
:103DF000737320746865206B6E6F622E00456A6570
:103E00006374696E672066696C616D656E74002508
:103E1000632533642F256425630024F4D43050C314
:103E20008E20C2A24017828B7011127A910D816C84
:103E3000D90AA861E108C7586607615143061E4BBD
:103E40005D05C145A7041A411104093D9803713964
:103E500031034036DB0265339102D4305402802EA8
:103E60001D02632CEE01752AC501B028A0011027A0
:103E700081018F2564012B244B01E0223401AC2108
:103E80001F018D200D01801FFC00841EED00971D79
:103E9000DF00B81CD200E61BC600201BBC00641A61
:103EA000B200B219A8000A19A0006A189900D11727
:103EB000910040178B00B516840031167E00B315B3
:103EC00079003A157300C7146F0058146A00EE1396
:103ED00066008813630025135E00C7125B006C1236
:103EE000570015125400C111510070114F002111DB
:103EF0004B00D61049008D104700461044000210B8
:103F00004200C00F4000800F3E00420F3C00060FF1
:103F10003B00CB0E3800930E37005C0E3500270EA9
:103F20003400F30D3200C10D3100900D3000600DF2
:103F30002E00320D2D00050D2C00D90C2B00AE0CDF
:103F40002900850C29005C0C2700350C27000E0C7D
:103F50002600E80B2400C40B2400A00B23007D0BDB
:103F600023005A0B2100390B2100180B2000F80AFE
:103F70001F00D90A1E00BB0A1E009D0A1D00800AF0
:103F80001D00630A1C00470A1B002C0A1B00110AB3
:103F90001A00F7091A00DD091900C4091900AB0954
:103FA0001900920917007B091800630917004C09D2
:103FB000160036091600200916000A091500F50832
:103FC0001500E0081400CC081400B8081400A40878
:103FD0001400900813007D0812006B0813005808A5
:103FE00012004608120034081100230811001208BC
:103FF000110001081100F0071000E0071000D007C1
:104000001000C0071000B0070F00A10710009107B3
:104010000E0083070F0074070F0065070E00570797
:104020000E0049070E003B070D002E070E0020076B
:104030000D0013070D0006070D00F9060C00ED0634
:104040000D00E0060C00D4060C00C8060C00BC06EF
:104050000C00B0060C00A4060B0099060C008D069F
:104060000B0082060B0077060B006C060B00610646
:104070000A0057060B004C060A0042060A003806E2
:104080000A002E060A0024060A001A060A00100674
:10409000090007060A00FD050900F4050900EB0503
:1040A0000900E2050900D9050900D0050900C70586
:1040B0000900BE050900B5050800AD050800A50505
:1040C00009009C050800940508008C05080084057B
:1040D00008007C050800740508006C0507006505EC
:1040E00008005D050700560508004E050700470556
:1040F00007004005080038050700310507002A05BC
:104100000700230507001C050600160507000F051C
:1041100007000805060002050700FB040600F50479
:104120000700EE040600E8040600E2040700DB04D2
:104130000600D5040600CF040600C9040600C30427
:104140000600BD040600B7040600B1040500AC0477
:104150000600A6040600A00405009B0406009504C2
:104160000500900406008A0405008504050080040B
:1041700006007A04050075040500700405006B0450
:10418000050066040500610405005C040500570491
:104190000500520405004D040500480405004304D1
:1041A00005003E0404003A0405003504050030040F
:1041B00004002C04050027040400230405001E0449
:1041C00004001A04040016040500110404000D0480
:1041D0000400090405000404040000040400FC03B6
:1041E0000400F8030400F4030400F0030400EC03EB
:1041F0000400E8030400E4030400E0030400DC031B
:104200000400D8030400D4030400D0030400CC034A
:104210000400C8030300C503030024F404D9201BD1
:10422000C40C5C0E9804C4095F0265077101F405B3
:10423000F900FB04B30048048700C1036900580378
:10424000550003034500BE023A00840231005302C8
:104250002A002902250004022000E4011C00C801F4
:104260001900AF01170098011400840113007101B7
:1042700010006101100051010E0043010D003601D4
:104280000B002B010B0020010B00150109000C0194
:10429000090003010800FB000800F3000800EB0020
:1042A0000700E4000600DE000600D8000600D20089
:1042B0000600CC000500C7000500C2000500BD00D7
:1042C0000400B9000400B5000400B1000400AD0012
:1042D0000400A9000400A5000300A20003009F0041
:1042E00004009B0003009800030095000200930067
:1042F0000300900003008D0002008B000300880083
:1043000002008600020084000300810002007F009A
:1043100002007D0002007B000200790002007700AD
:1043200001007600020074000200720001007100BA
:1043300002006F0002006D0001006C0002006A00C4
:1043400001006900020067000100660001006500CD
:1043500001006400020062000100610001006000D1
:1043600001005F0002005D0001005C0001005B00D5
:1043700001005A00010059000100580001005700D7
:1043800001005600010055000100540001005300D7
:1043900000005300010052000100510001005000D4
:1043A00001004F0001004E0000004E0001004D00D2
:1043B00001004C0001004B0000004B0001004A00CE
:1043C00001004900010048000000480001004700CA
:1043D00001004600000046000100450000004500C5
:1043E00001004400010043000000430001004200BE
:1043F00000004200010041000000410001004000B7
:1044000001003F0000003F0001003E0000003E00B0
:1044100001003D0000003D0001003C0000003C00A8
:1044200000003C0001003B0000003B0001003A009E
:1044300000003A0001003900000039000100380096
:10444000000038000000380001003700000037008D
:104450000100360000003600000036000100350083
:104460000000350000003500010034000000340079
:10447000000034000100330000003300000033006E
:104480000100320000003200000032000100310063
:104490000000310000003100010030000000300059
:1044A0000000300001002F0000002F0000002F004E
:1044B00000002F0001002E0000002E0000002E0042
:1044C00001002D0000002D0000002D0000002D0037
:1044D00001002C0000002C0000002C0000002C002B
:1044E00001002B0000002B0000002B0000002B001F
:1044F00001002A0000002A0000002A0000002A0013
:104500000100290000002900000029000000290006
:1045100000002900010028000000280000002800F9
:1045200000002800000028000100270000002700EC
:1045300000002700000027000000270001002600DF
:1045400000002600000026000000260000002600D3
:1045500001002500000025000000250000002500C6
:1045600000002500000025000100240000002400B8
:1045700000002400000024000000240001002300AB
:10458000000023000000230000002300000023009F
:104590000000230000002300010022000000220090
:1045A0000000220000002200000022000000220083
:1045B0000100210000002100000021000000210076
:1045C0000000210000002100000021000100200067
:1045D000000020000000200000002000000020005B
:1045E00000002000000020000000200001001F004B
:1045F00000001F0000001F0000001F0000001F003F
:1046000000001F0000001F0001001E0000001E002F
:1046100000001E0000001E0000004E6F2030784693
:10462000462072656365697665640053656E6469EA
:104630006E67203078464600202225732200202510
:10464000236C78004449525F45584954004449520C
:104650005F454E5445523A20257320222573220A85
:104660000046696C652073656C6563746564002041
:1046700053697A653A200046696C65206F70656EF3
:1046800065643A20004E6F77206672657368206615
:10469000696C653A20004E6F7720646F696E672001
:1046A00066696C653A20002220706F7300222070CA
:1046B0006172656E743A2200535542524F55544907
:1046C0004E452043414C4C207461726765743A2218
:1046D00000747279696E6720746F2063616C6C205E
:1046E0007375622D67636F64652066696C657320FE
:1046F0007769746820746F6F206D616E79206C65C6
:1047000076656C732E0046696C616D656E742073FE
:10471000656E736F7220626F617264206368616E90
:1047200067652064657465637465643A20726576B4
:104730006973696F6E25530A005344206361726484
:10474000206F6B006F70656E526F6F7420666169C9
:104750006C656400766F6C756D652E696E6974208A
:104760006661696C656400534420696E69742066F3
:1047700061696C006F70656E206661696C65642CA0
:104780002046696C653A200043616E6E6F74206547
:104790006E746572207375626469723A2000536F9B
:1047A0007274696E672066696C657300536F6D651E
:1047B0002066696C65732077696C6C206E6F74205D
:1047C000626520736F727465642E204D61782E20AF
:1047D0004E6F2E206F662066696C657320696E20AF
:1047E0003120666F6C64657220666F7220736F7221
:1047F00074696E67206973203130302E00452D6357
:104800006F6F6C206D6F646500414C5446414E20C3
:104810006465742E004F6E004F6666004261636BE4
:10482000005072696E746572206E6F7A7A6C6520C2
:104830006469616D6574657220646966666572732A
:104840002066726F6D2074686520472D636F646504
:104850002E20506C6561736520636865636B2074FE
:1048600068652076616C756520696E207365747467
:10487000696E67732E205072696E742063616E6377
:10488000656C6C65642E005072696E746572206E82
:104890006F7A7A6C65206469616D657465722064F5
:1048A0006966666572732066726F6D207468652034
:1048B000472D636F64652E20436F6E74696E756556
:1048C0003F006265746100616C70686100646576C8
:1048D0000003000A0001005912505255534133445D
:1048E00046570000002100240027002A002D003038
:1048F00000330001010000040107010A0100002249
:1049000000250028002B002E003100340002010099
:1049100000050108010B01000020002300260029EA
:10492000002C002F003200000100000301060109E5
:104930000105050505070508080808020202020A24
:104940000A08080404040401010101010101010332
:1049500003030303030303040707070C0C0C0C0CED
:104960000C0C0C0202020206060606060606060BE0
:104970000B0B0B0B0B0B0B07070A0A0A0A0A0A059B
:10498000050504040408080102102020080810206E
:1049900040102040800201020108040201010204CB
:1049A000081020408080402010080402018004028A
:1049B00001804020100804020108040201010204E1
:1049C00008102040800102040810204080100804D4
:1049D0000880102040044080102040048000000A1D
:1049E0000B02090C0D0E0807030401000000000073
:1049F00000000000000000000000000000000000B7
:104A00000000000000000000001211100000000073
:104A10000000000000000000000000000000000096
:104A20000000000000000000000000000000000086
:104A30000000001000C90210012C01400122017089
:104A4000011801B0010E01F00104015002FA00B09A
:104A500002F0003003E600D003DC009004D20070C6
:104A600005C800A006BE000008B400B009AA00D026
:104A70000BA000600E960060118C000015820020D3
:104A8000197800C01D6E00A0226400B0275A009063
:104A90002C500000314600E0343C001038320090C9
:104AA0003A2800603C1E00A03D1400803E0A002011
:104AB0003F0000504944204175746F74756E652045
:104AC00066696E6973686564212050757420746826
:104AD00065206C617374204B702C204B6920616ED3
:104AE00064204B6420636F6E7374616E7473206610
:104AF000726F6D2061626F766520696E746F2043FE
:104B00006F6E66696775726174696F6E2E680050AA
:104B10004944204175746F74756E65206661696CD7
:104B20006564212074696D656F75740020403A00DA
:104B3000543A00423A00504944204175746F7475EC
:104B40006E65206661696C6564212054656D7065D1
:104B500072617475726520746F6F20686967680090
:104B6000204B643A2000204B693A2000204B703AD9
:104B7000200020436C617373696320504944200016
:104B80002054753A2000204B753A2000206D617842
:104B90003A2000206D696E3A200020643A200020FF
:104BA000626961733A200045787472756465722099
:104BB00066616E207370656564206973206C6F7721
:104BC0006572207468616E206578706563746564D1
:104BD000005072696E742066616E20737065656442
:104BE000206973206C6F776572207468616E206530
:104BF00078706563746564004D494E54454D50208E
:104C0000414D42004D415854454D50004D4158547E
:104C1000454D5020424544004D415854454D50208B
:104C2000414D4200202D20496E76616C69642065FB
:104C300078747275646572206E756D62657220217C
:104C4000005553415254322072782046756C6C21C5
:104C500021210053657474696E67732053746F72F9
:104C600065640053746F7265642073657474696E53
:104C70006773207265747269657665640048617255
:104C800064636F6465642044656661756C74205369
:104C9000657474696E6773204C6F61646564005657
:104CA0003200000000C8420000C8420000C84300B3
:104CB000008C43000048430000484300004041008E
:104CC00000F042E8030000E8030000C8000000888C
:104CD00013000000409C4400409C44000000000081
:104CE000000000204E00000000204100002041CDC7
:104CF000CCCC3E000090400000000000000000000E
:104D0000000000CDCCCC3E3D0A8141FF08433EB0BF
:104D100099AB438F42FC42E65A343F4C62B04500A7
:104D2000000000004040000034420000000000008D
:104D3000000000000041000000E03F0000C8420009
:104D400000C842000040410000F042C0030000C023
:104D5000030000C80000008813000010101020009D
:104D6000409C44256C752062797465732077726964
:104D70007474656E20746F20255320617420616403
:104D800064726573732030782530346C780A00447F
:104D90002564202D20526561642F57726974652047
:104DA00025530A00506C656173652070756C6C202A
:104DB0006F75742066696C616D656E7420696D6DC8
:104DC0006564696174656C7900556E6C6F616469C6
:104DD0006E672066696C616D656E740052657365FF
:104DE000740052656E616D65004669727374206C63
:104DF000617965722063616C2E0053656C65637424
:104E000000537465656C2073686565747300537531
:104E100070706F7274004661696C20737461747392
:104E2000204D4D55004661696C20737461747300A8
:104E3000537461746973746963730043616C69626C
:104E4000726174696F6E004175746F4C6F6164209C
:104E500066696C616D656E74004375742066696C7B
:104E6000616D656E7400456A6563742066696C6186
:104E70006D656E7400556E6C6F61642066696C615F
:104E80006D656E74004C6F616420746F206E6F7A74
:104E90007A6C65004C6F61642066696C616D656E4B
:104EA00074004E6F20534420636172640050726935
:104EB0006E742066726F6D20534400526573756D79
:104EC00065207072696E7400506175736520707230
:104ED000696E7400507265686561740054756E6522
:104EE000004C6976652061646A757374205A0049C4
:104EF0006E666F2073637265656E0046696E6973D6
:104F000068696E67206D6F76656D656E74730042BB
:104F100072696768746E6573730041737369737443
:104F20000053696C656E74004F6E6365004C6F755D
:104F30006400536F756E64004D4D55204D6F646570
:104F4000004372617368206465742E005374656158
:104F50006C7468004E6F726D616C0046616E7320F8
:104F6000636865636B00506175736500436F6E74B1
:104F70002E00465320416374696F6E0046696C2EA3
:104F80002073656E736F72004368616E676520669B
:104F9000696C616D656E7400466C6F770053706567
:104FA0006564004E2F41004D61676E657473206328
:104FB0006F6D702E005A2D70726F6265206E722EAA
:104FC000004D657368004572723A205052494E5444
:104FD0002046414E204552524F52004572723A20AF
:104FE000455854522E2046414E204552524F5200B1
:104FF0002F2F20616374696F6E3A706175736564F9
:10500000002F2F20616374696F6E3A726573756D3E
:105010006564002F2F20616374696F6E3A72657347
:10502000756D65004D36303000627573793A2070C9
:10503000617573656420666F7220696E70757400A7
:10504000627573793A2070617573656420666F725A
:10505000207573657200627573793A2070726F63A0
:10506000657373696E670000007F430080544300DE
:1050700000524300000000000080C09A99193E00D1
:10508000000000000080C09A99193E0000A0400076
:1050900000A0400000004025336420737465703D1B
:1050A000253264206D73636E743D2534640A0000FC
:1050B000007F43008058439AD95143FFFFFF2041AE
:1050C0003A0020503A002042403A0020403A002066
:1050D0002F00205400202F0020423A00202F00549F
:1050E0003A00436F6F6C646F776E0050726568654D
:1050F000617420746865206E6F7A7A6C6521004552
:1051000052524F523A0046696C616D656E7420656B
:105110007874727564696E672026207769746820D8
:10512000636F727265637420636F6C6F723F0041CE
:1051300075746F6C6F6164696E672066696C616D10
:10514000656E74206973206163746976652C206ACA
:1051500075737420707265737320746865206B6E4C
:105160006F6220616E6420696E7365727420666977
:105170006C616D656E742E2E2E005072696E7420F7
:1051800074696D650046696C616D656E7420757338
:10519000656400546F74616C207072696E74207461
:1051A000696D6500546F74616C2066696C616D6532
:1051B0006E74005269676874004C6566740059200B
:1051C00064697374616E63652066726F6D206D69CA
:1051D0006E0053657665726520736B657700536C5E
:1051E0006967687420736B6577004D6561737572CC
:1051F000656420736B6577005B303B305D20706FBA
:10520000696E74206F66667365740041646A7573B5
:1052100074696E67205A3A0052656172207369643E
:1052200065205B756D5D0046726F6E7420736964F6
:10523000655B756D5D0052696768742073696465AC
:105240005B756D5D004C6566742073696465205BF9
:10525000756D5D005365742074656D706572617461
:105260007572653A00464C4558202D202032343066
:105270002F35300050502020202D20203235342F63
:105280003130300048495053202D20203232302F09
:105290003130300041425320202D20203235352F2F
:1052A0003130300050564220202D20203231352F11
:1052B00037350050432020202D20203237352F3124
:1052C00031300041534120202D20203236302F3103
:1052D00030350050455420202D20203233302F38D7
:1052E0003500504C4120202D20203139352F3635C6
:1052F000006E6F7A7A6C65202D20203235302F3089
:10530000006661726D2020202D20203235302F382C
:105310003000252D31322E313253252B382E316677
:105320000045787472756465723A006D6D005900BD
:105330005800583A00593A005A3A002563252D3151
:10534000332E313353252B352E33660025533A0A3D
:105350002531382E32666D200A25533A0A25313020
:105360006C6468202530326868646D2025303268AE
:105370006864730025533A0A2531382E32666D2051
:105380000A25533A0A2531306C646420253032688E
:10539000686468202530326868646D0025362E32D6
:1053A000666D6D0025530A25530A25533A0A255385
:1053B0003A0025332E32660100252D31342E31344A
:1053C000533A0A25530A252D31342E3134533A25C8
:1053D000332E3266010A252D31342E3134533A25CD
:1053E000332E32660100526573656E640025533AB0
:1053F00020256C640A25530A00496E61637469763E
:105400006974792053687574646F776E004B494CEA
:105410004C45442E20005072696E7465722068619C
:105420006C7465642E206B696C6C28292063616C38
:105430006C656421004B494C4C3A2025640A004DB0
:1054400032323120496E76616C69642065787472FD
:105450007564657220004D32313820496E76616C7A
:10546000696420657874727564657220004D31300E
:105470003920496E76616C69642065787472756450
:10548000657220004D31303520496E76616C69645B
:1054900020657874727564657220004D3130342057
:1054A000496E76616C6964206578747275646572A2
:1054B00020004D363030006673656E736F725F7515
:1054C0007064617465202D204D36303000495220C3
:1054D00073656E736F72206E6F7420726573706F78
:1054E0006E64696E672028256429210A0048656179
:1054F00074696E672064697361626C6564206279A7
:10550000207361666574792074696D65722E00463A
:10551000532076302E33206F72206F6C64657200DA
:1055200046532076302E34206F72206E6577657278
:105530000078797A63616C5F73706972616C322094
:1055400063783D25642063793D2564207A303D25CC
:105550006420647A3D2564207261646975733D2519
:10556000642061643D25640A005061747465726E44
:105570002063656E746572205B25662025665D2C50
:10558000206D6174636820256625250A00205B254F
:10559000662C2025665D5B25665D2066696E616C04
:1055A00020636972636C650A00746D633231333055
:1055B0005F676F746F5F7374657020256420256466
:1055C000202564202564200A00473830004D3435FA
:1055D000004D3435205A004737360057697A6172DA
:1055E000642073746174653A2025640A0043616C19
:1055F00069627261746500536865657420252E3791
:10560000730A5A206F66667365743A20252B312E13
:105610003366206D6D0A2563436F6E74696E756520
:105620000A256353746172742066726F6D207A6507
:10563000726F00506C65617365206C6F61642066E9
:10564000696C616D656E742066697273742E003EBC
:1056500043616E63656C0046696C616D656E7400D4
:1056600053656C6563742066696C616D656E743A30
:105670000052756E6E696E672057697A6172642098
:1056800077696C6C2064656C6574652063757272F3
:10569000656E742063616C6962726174696F6E20FB
:1056A000726573756C747320616E642073746172BB
:1056B000742066726F6D2074686520626567696E1C
:1056C0006E696E672E20436F6E74696E75653F005C
:1056D00050726568656174696E67206E6F7A7A6C66
:1056E000652E20506C6561736520776169742E00AA
:1056F0004C6F6164696E672066696C616D656E747C
:1057000000506C6561736520696E73657274206604
:10571000696C616D656E7420696E746F2074686564
:105720002065787472756465722C207468656E20CB
:10573000707265737320746865206B6E6F6220747D
:105740006F206C6F61642069742E00506C6561730A
:105750006520696E736572742066696C616D656E33
:105760007420696E746F2074686520666972737442
:105770002074756265206F6620746865204D4D55F4
:105780002C207468656E2070726573732074686570
:10579000206B6E6F6220746F206C6F61642069747F
:1057A0002E00546865207072696E74657220776986
:1057B0006C6C207374617274207072696E74696E9F
:1057C000672061207A69672D7A6167206C696E6550
:1057D0002E20526F7461746520746865206B6E6F43
:1057E0006220756E74696C20796F752072656163D3
:1057F0006820746865206F7074696D616C206865DD
:10580000696768742E20436865636B20746865203F
:10581000706963747572657320696E2074686520A1
:1058200068616E64626F6F6B202843616C6962729D
:105830006174696F6E2063686170746572292E00EF
:1058400053656C6563742074656D70657261747501
:105850007265207768696368206D61746368657339
:1058600020796F7572206D6174657269616C2E00AC
:1058700043686F6F736520612066696C616D656E4A
:105880007420666F72207468652046697273742094
:105890004C617965722043616C6962726174696FF1
:1058A0006E20616E642073656C656374206974207A
:1058B000696E20746865206F6E2D73637265656E06
:1058C000206D656E752E004E6F7720492077696CCC
:1058D0006C2063616C6962726174652064697374C1
:1058E000616E6365206265747765656E20746970AA
:1058F000206F6620746865206E6F7A7A6C6520610F
:105900006E64206865617462656420737572666197
:1059100063652E00596F752063616E20616C77613D
:10592000797320726573756D652074686520576999
:105930007A6172642066726F6D2043616C69627275
:105940006174696F6E202D3E2057697A6172642EF2
:1059500000506C6561736520636865636B206F75CB
:10596000722068616E64626F6F6B20616E64206686
:105970006978207468652070726F626C656D2E2086
:105980005468656E20726573756D65207468652056
:1059900057697A617264206279207265626F6F74F0
:1059A000696E6720746865207072696E7465722E06
:1059B00000416C6C20697320646F6E652E20486115
:1059C000707079207072696E74696E672100496623
:1059D00020796F75206861766520616464697469F7
:1059E0006F6E616C20737465656C20736865657497
:1059F000732C2063616C69627261746520746865E0
:105A00006972207072657365747320696E205365C6
:105A10007474696E6773202D204857205365747520
:105A200070202D20537465656C20736865657473F0
:105A30002E00506C6561736520636C65616E206833
:105A400065617462656420616E64207468656E20AF
:105A5000707265737320746865206B6E6F622E00C0
:105A6000446F20796F752077616E7420746F207297
:105A70006570656174206C61737420737465702047
:105A8000746F20726561646A7573742064697374DD
:105A9000616E6365206265747765656E206E6F7AEE
:105AA0007A6C6520616E6420686561746265643F2C
:105AB0000053656C656374206E6F7A7A6C65207034
:105AC0007265686561742074656D70657261747566
:105AD0007265207768696368206D617463686573B7
