:100000000C945A350C948B350C948B350C948B35A1
:100010000C948B350C94EF640C948B350D945A131F
:100020000C947A640C948B350C948B350C948B3532
:100030000D9475590C948B350C94B9B80D94B73256
:100040000C948B350C9401F80C948B350C948B35F7
:100050000C948B350C948B350C948B350C941E8F33
:100060000C948B350D94712D0C948B350C948B3531
:100070000C948B350C948B350C948B350C948B3500
:100080000C948B350C948B350C948B350C948B35F0
:100090000D942D2D0C948B350C948B350C948B3545
:1000A0000C948B350C948B350D942F320C948B352E
:1000B0000C948B350D9411320C948B350C948B353C
:1000C0000C948B350C948B350C948B350D948431BA
:1000D0000C948B350C948B350C948B350C948B35A0
:1000E0000C948B353A8F488F568F638F758F7C8F2A
:1000F0009E8FB48F799982992799F698C698719CAA
:10010000BD99DC9A729BC89BE49B1B9C98A8B4AADF
:1001100084AA79AA6EAA63AA58AAD7AAC7AA31AA9A
:1001200003AAE7A918B0C9AF18B01BB08CB0BBB018
:1001300018B018B0DAB075022502810141029702A9
:100140007102AF02B702BF026F026D019701BD02DB
:10015000B5017102DF018502DD01C50145027F02A3
:10016000A90299023F0249011702CD015F02E7018E
:1001700037029D015B023F022302F50175012D024A
:100180002D02AF012D02AF0113024B020F02190223
:10019000A102E3014F01AB019D024F023502730240
:1001A0009D02390295018702B10185019301470241
:1001B0005D01B102BB0211026901E5017702BB01D9
:1001C00031025502084AD73B3BCE016E84BCBFFDCD
:1001D000C12F3D6C74319ABD56833DDA3D00C77F17
:1001E00011BED9E4BB4C3E916BAAAABE00000080B0
:1001F0003F05A84CCDB2D44EB93836A9020C50B93F
:10020000918688083CA6AAAA2ABE000000803F0763
:10021000634236B79BD8A71A39685618AEBAAB55A1
:100220008C1D3CB7CC5763BD6DEDFD753EF6177266
:1002300031BF000000803F08000000BE9224491238
:100240003EABAAAA2ABECDCCCC4C3E00000080BE5C
:10025000ABAAAAAA3E00000000BF000000803F0039
:1002600000000000084178D3BB4387D1133D190E2D
:100270003CC3BD4282AD2B3E68EC8276BED98FE195
:10028000A93E4C80EFFFBE01C4FF7F3F000000008D
:1002900000000D94E4060D94194C0D9487050D94FF
:1002A00080560D94CE260D94316A0D94A5050D94BB
:1002B00058540D94596E0D9446510D949C7E0D9496
:1002C000314C0D94D61F0D947A040D94784A0D94F8
:1002D000D6570D94C57E0D9484040D9458040D9446
:1002E00032550D94A6290D94002C0D9449070D94B8
:1002F0009B050D94054D0D94001C0D94274A0D94FB
:100300002A510D9431040D94E2230D94837E0D94B3
:10031000CE1D0D94A3240D94B8670D94A1550D9492
:10032000AA520D94AF240D948C7E0D94F7560D9423
:100330005E040D944A4F0D9494AA0D9421070D94D8
:1003400002650D943C550D94E82C0D9462820D9439
:100350006A570D94F7250D94B0560D94EA210D942B
:10036000C8500D941D570D94B5B10D9466040D94AD
:10037000E3140D948C050D94EB7E0D9424550D948F
:10038000F24B0D9418650D94D04C0D94BC060D9451
:100390004A6E0D9463530D94D00B0D94F4060D9496
:1003A000AE050D94AF760D94FC2B0D9471520D9407
:1003B000B1650D9496050D9489040D9474040D9403
:1003C0006C040D9467520D9476560D94CE7E0D9468
:1003D00008070D94B04F0D94AF290D9405830D942B
:1003E00023510D9491050D94D44A0D943F070D941B
:1003F000214C0D94B1680D94914F0D9481490D9449
:10040000A8870D943F6A0D94B51A0D941C510D9454
:10041000391B0D94AA050D94C52A0D94976F0D9460
:100420003B560D94BC7E0D94CB500D9419780D94D1
:10043000EC060D9457560D94FE140D94EF050D9493
:1004400038510D9454520D9435070D9442040D9477
:10045000042C0D94334C0D9441520D94BB500D94CB
:100460007C210D94EE7E0D941D550D94D8560D945F
:1004700012070D94DA560D94C6230D94086E0D9450
:1004800053070D9435040D946E1A0D94C1060D9406
:10049000997E0D94A5640D94CE500D9431510D9418
:1004A000C6560D949D290D94F31B0D94F77E0D9463
:1004B000CE1F0D94C51F0D942B070D9480040D9431
:1004C000FE060D94B5520D94BE490D942E520D9416
:1004D00046220D941D4A0D942B550D94A92A0D9476
:1004E00054040D9479040D94D4560D943F040D9446
:1004F000D77E0D9474550D94151C0D94454F0D9495
:10050000C6060D94A0050D944D510D9470040D94E4
:100510000B570D94BF1F0D94B32A0D94766A0D945A
:100520004D270D94E01D0D9469510D9462510D9469
:100530003B040D94DA060D945B510D9425560D94F1
:10054000B8290D9469560D9444230D94A64A0D9430
:100550007B520D94D0060D947C1B0D944E550D943A
:1005600046040D94B67E0D94D1200D9449640D94EB
:100570004A040D943F510D94B97E0D9462040D947C
:1005800050040D94A1680D94344A0D9482200D946A
:10059000294B0D94CF2C0D94A1760D947F4C0D9486
:1005A0003C2C0D94201C0D9454510D94634B6E61A2
:1005B0006E00696E66004E414E494E495459494E8F
:1005C00046CDCCCC3D0AD7233C17B7D13877CC2BBE
:1005D000329595E6241FB14F0A000020410000C863
:1005E0004200401C4620BCBE4CCA1B0E5AAEC59DE4
:1005F0007400407A10F35A00A0724E18090010A53A
:10060000D4E80000E87648170000E40B540200002C
:10061000CA9A3B000000E1F50500008096980000B2
:100620000040420F000000A08601000000102700DB
:10063000000000E803000000006400000000000A61
:1006400000000000000100000000002C76D888DCCB
:10065000674F0823DFC1DFAE59E1B1B796E5E3E4A8
:1006600053C63AE651997696E8E6C28426EB898C21
:100670009B62ED407C6FFCEFBC9C9F40F2BAA56F83
:10068000A5F490055A2AF75C936B6CF9676DC11B52
:10069000FCE0E40D47FEF520E6B500D0ED902E031A
:1006A00000943577050080841E080000204E0A0063
:1006B0000000C80C333333330F986E12831141EFAF
:1006C0008D2114893BE65516CFFEE6DB18D1844B0D
:1006D000381BF77C1D901DA4BBE424203284725E7D
:1006E000228100C9F124ECA1E53D276364696E6FA6
:1006F00070737578585B0064756D7020636C65610C
:100700007265640A006E6F2064756D702061766199
:10071000696C61626C650A00443231202D2072657B
:1007200061642063726173682064756D700A006E85
:100730006F2064756D7020617661696C61626C65B3
:100740000A0064756D7020636F6D706C657465640C
:1007500020696E20256C756D730A0058464C415314
:100760004800454550524F4D005352414D00442DD5
:1007700031202D20456E646C657373206C6F6F7033
:100780000A005344207072696E74696E6720627942
:1007900074652000416374697665204578747275CC
:1007A0006465723A2000496E76616C6964206578F0
:1007B000747275646572005A204F666673657400C2
:1007C000556E6B6E6F776E20636F6D6D616E643A00
:1007D0002022004D32303020496E76616C696420F1
:1007E000657874727564657220007A5F6D61783A1D
:1007F00020007A5F6D696E3A2000795F6D61783A0A
:100800002000795F6D696E3A2000785F6D61783AFB
:1008100020006F70656E0054524947474552454469
:1008200000785F6D696E3A20005265706F7274696E
:100830006E6720656E6473746F7020737461747575
:10084000730053494C454E54004E4F524D414C009D
:100850002553204D4F44453A2050657263656E74B0
:1008600020646F6E653A20256868643B2070726969
:100870006E742074696D652072656D61696E696E54
:100880006720696E206D696E733A2025643B2043B2
:1008900068616E676520696E206D696E733A202508
:1008A000640A00456E642066696C65206C69737427
:1008B00000426567696E2066696C65206C697374B7
:1008C00000556E6B6E6F776E20256320636F6465D5
:1008D0003A2025730A000A50494E44412074656D40
:1008E00070657261747572653A20252E3166205AE2
:1008F00020736869667420286D6D293A20252E338F
:1009000066000A537465703A2025642F360A000A7F
:10091000537465703A2025642F362028736B6970F4
:10092000706564290A50494E44412074656D7065B4
:100930007261747572653A202564205A2073686963
:10094000667420286D6D293A300A000A5A45524FC4
:100950003A20252E33660A00737461727420746520
:100960006D70657261747572653A20252E31660A64
:100970000025642020252E326600255320583A2079
:10098000252E356620593A20252E3566205A3A20E4
:10099000252E35660A00536C6565702E2E2E004597
:1009A000303A25642052504D0A50524E303A256458
:1009B0002052504D0A00256400416476616E6365E3
:1009C000204B3D004B206F7574206F6620616C6C6E
:1009D0006F7765642072616E67652100200A200AC6
:1009E00020004D3232302053256900255346696C72
:1009F000616D656E742073657474696E67733A20F7
:100A000044697361626C65640A00255346696C61D0
:100A10006D656E742073657474696E67733A0A2528
:100A2000532020204D3230302044252E32660A00DB
:100A30002553526574726163743A20533D4C656E60
:100A400067746820286D6D2920463A537065656487
:100A500020286D6D2F6D29205A3A205A4C696674F2
:100A600020286D6D290A25532020204D3230372053
:100A700053252E32662046252E3266205A252E32E8
:100A8000660A25535265636F7665723A20533D4579
:100A900078747261206C656E67746820286D6D29AA
:100AA00020463A537065656420286D6D2F6D290AC4
:100AB00025532020204D3230382053252E326620F9
:100AC00046252E32660A25534175746F2D52657482
:100AD000726163743A20533D3020746F20646973EF
:100AE00061626C652C203120746F20696E746572B0
:100AF0007072657420657874727564652D6F6E6CA4
:100B000079206D6F766573206173207265747261F0
:100B1000637473206F72207265636F7665726965A6
:100B2000730A25532020204D323039205325640A82
:100B300000255350494420686561746265642073E0
:100B4000657474696E67733A0A25532020204D330B
:100B500030342050252E32662049252E326620441E
:100B6000252E32660A00255350494420736574745B
:100B7000696E67733A0A25532020204D33303120A7
:100B800050252E32662049252E32662044252E32ED
:100B9000660A002553537465707320706572207562
:100BA0006E69743A0A255320204D39322058252E7B
:100BB00032662059252E3266205A252E326620456F
:100BC000252E32660A25535553746570207265735D
:100BD0006F6C7574696F6E3A200A2553204D33355A
:100BE000302058256420592564205A256420452545
:100BF000640A25534D6178696D756D20666565647D
:100C00007261746573202D206E6F726D616C202887
:100C10006D6D2F73293A0A255320204D3230332031
:100C200058252E32662059252E3266205A252E321E
:100C3000662045252E32660A25534D6178696D750B
:100C40006D20666565647261746573202D20737410
:100C500065616C746820286D6D2F73293A0A2553DD
:100C600020204D3230332058252E32662059252E33
:100C70003266205A252E32662045252E32660A25F8
:100C8000534D6178696D756D20616363656C657244
:100C90006174696F6E202D206E6F726D616C2028FB
:100CA0006D6D2F7332293A0A255320204D32303191
:100CB0002058256C752059256C75205A256C752097
:100CC00045256C750A25534D6178696D756D2061F8
:100CD0006363656C65726174696F6E202D20737437
:100CE00065616C746820286D6D2F7332293A0A256E
:100CF0005320204D3230312058256C752059256CF9
:100D000075205A256C752045256C750A255341635D
:100D100063656C65726174696F6E3A20503D7072E4
:100D2000696E742C20523D726574726163742C205C
:100D3000543D74726176656C0A255320204D323023
:100D4000342050252E32662052252E32662054251E
:100D50002E32660A2553416476616E63656420769F
:100D600061726961626C65733A20533D4D696E2012
:100D7000666565647261746520286D6D2F73292C1A
:100D800020543D4D696E2074726176656C206665F5
:100D900065647261746520286D6D2F73292C204263
:100DA0003D6D696E696D756D207365676D656E74F7
:100DB0002074696D6520286D73292C20583D6D6164
:100DC00078696D756D205859206A65726B20286DA1
:100DD0006D2F73292C20205A3D6D6178696D756DDA
:100DE000205A206A65726B20286D6D2F73292C2084
:100DF00020453D6D6178696D756D2045206A65728D
:100E00006B20286D6D2F73290A255320204D323019
:100E1000352053252E32662054252E326620422559
:100E20002E32662058252E32662059252E32662015
:100E30005A252E32662045252E32660A2553486FE4
:100E40006D65206F666673657420286D6D293A0A9A
:100E5000255320204D3230362058252E3266205919
:100E6000252E3266205A252E32660A004625642039
:100E700025640A004D4D55203C3D20274625642021
:100E80002564270A004361703A25533A25630A0016
:100E9000455854454E4445445F4D32300041555409
:100EA0004F5245504F52545F504F534954494F4E43
:100EB000004155544F5245504F52545F46414E5396
:100EC000004155544F5245504F52545F54454D5078
:100ED00000005A30005A3100593000593100583062
:100EE00000583100456E642073746F70732064691C
:100EF00061670044656C6574696F6E206661696C3A
:100F000065642C2046696C653A200046696C652052
:100F100064656C657465643A004E6F7420534420B8
:100F20007072696E74696E67005072696E742073B6
:100F300061766564005344207072696E742070613C
:100F400075736564004F4B004241440052414D426D
:100F50006F2046414E200043524153485F43414E6B
:100F600043454C0043524153485F5245434F564519
:100F7000520043524153485F5245434F5645520039
:100F800022283229004475706C69636174652054AD
:100F90002D636F64652069676E6F7265642E00490A
:100FA0006E76616C6964205420636F64652E002C3A
:100FB000204D39303720452069676E6F72656400B7
:100FC0006E6F2076616C696420636F6D6D616E6415
:100FD000002C20002C20002C20006E2F61002C20E3
:100FE000002C20002C20006E2F6100503A00576129
:100FF000697420666F722050494E444120746172BA
:101000006765742074656D70657261747572653A98
:10101000004155544F004C414E472053454C20460B
:101020004F5243454400256925250A002569252599
:101030000A00222831290030303030303030302D55
:10104000303030302D303030302D303030302D30A9
:10105000303030303030303030303000205555496D
:10106000443A0031002045585452554445525F439C
:101070004F554E543A005072757361206933204DBC
:101080004B335300204D414348494E455F5459501E
:10109000453A00312E3000206261736564206F6E26
:1010A000204D61726C696E204649524D5741524540
:1010B0005F55524C3A68747470733A2F2F67697495
:1010C0006875622E636F6D2F707275736133642F54
:1010D00050727573612D4669726D7761726520502B
:1010E000524F544F434F4C5F56455253494F4E3A1F
:1010F000004649524D574152455F4E414D453A5089
:10110000727573612D4669726D7761726520004D4D
:1011100031313320530020423A0020453A00543AFE
:10112000006F6B20006E2F61003F546F736869621F
:101130006120466C6173684169722047657449504B
:10114000206661696C65640A002569206D696E2CF2
:101150002025692073656300496E76616C6964209F
:101160004D20636F64653A2025730A004D657368EE
:1011700020626564206C6576656C696E67206E6FB1
:1011800074206163746976652E002020000A4D6525
:1011900061737572656420706F696E74733A000ACA
:1011A0005A20736561726368206865696768743A7C
:1011B00020004E756D20582C593A200050494E445D
:1011C000412070726F62652063616C696272617444
:1011D000696F6E2073746172740047323820573023
:1011E000004E6F2050494E444120746865726D690D
:1011F00073746F7200736574006E6F7A7A6C650039
:101200004D424C0046520042656174004C7A004CDD
:10121000616E67005265760046697200534E206920
:101220006E76616C696400534E004D323800524551
:10123000534554004D4D55524553004D32340075C1
:10124000766C6F007468780046414E0046414E50FF
:10125000494E5453540050524E0050696E6700502E
:1012600052555341005345545F43484F505F00531C
:1012700045545F535445505F005345545F574156A2
:10128000455F00544D435F0043524153485F434123
:101290004E43454C0043524153485F5245434F56DD
:1012A00045520043524153485F44455445435445D9
:1012B000440043524153485F004D3120004D3000FF
:1012C0004D31313700472D636F646520736C69635E
:1012D000656420666F722061206469666665726568
:1012E0006E74206C6576656C2E20436F6E74696E2B
:1012F00075653F00472D636F646520736C69636596
:101300006420666F72206120646966666572656E2E
:1013100074206C6576656C2E20506C656173652059
:1013200072652D736C69636520746865206D6F64E8
:10133000656C20616761696E2E205072696E742041
:1013400063616E63656C6C65642E00472D636F642A
:101350006520736C6963656420666F722061206E1E
:1013600065776572206669726D776172652E2050AF
:101370006C6561736520757064617465207468655F
:10138000206669726D776172652E205072696E7485
:101390002063616E63656C6C65642E00472D636F1E
:1013A000646520736C6963656420666F72206120D8
:1013B0006E65776572206669726D776172652E2041
:1013C000436F6E74696E75653F00472D636F64658A
:1013D00020736C6963656420666F722061206469A4
:1013E00066666572656E74207072696E74657220CF
:1013F000747970652E20436F6E74696E75653F0059
:10140000472D636F646520736C6963656420666F44
:1014100072206120646966666572656E7420707200
:10142000696E74657220747970652E20506C6561E8
:1014300073652072652D736C69636520746865201F
:101440006D6F64656C20616761696E2E20507269F2
:101450006E742063616E63656C6C65642E005072FF
:1014600065737320746865206B6E6F6220746F20E3
:1014700070726568656174206E6F7A7A6C65206140
:101480006E6420636F6E74696E75652E00506C65B6
:1014900061736520707265737320746865206B6E6C
:1014A0006F6220746F20756E6C6F61642066696C6A
:1014B000616D656E740052656D6F7665206F6C644A
:1014C0002066696C616D656E7420616E6420707257
:1014D00065737320746865206B6E6F6220746F2073
:1014E0007374617274206C6F6164696E67206E65DD
:1014F000772066696C616D656E742E00616E642084
:10150000707265737320746865206B6E6F6200493A
:101510006E736572742066696C616D656E740043EC
:101520006F6C6F72206E6F7420636F72726563747C
:101530000046696C616D656E74206E6F74206C6F0F
:1015400061646564004368616E67656420636F72FF
:10155000726563746C793F004C6F6164696E6720DB
:10156000636F6C6F72004368616E676520737563AB
:10157000636573732100506C65617365206F7065DE
:101580006E2069646C657220616E642072656D6F97
:1015900076652066696C616D656E74206D616E752F
:1015A000616C6C792E005761732066696C616D65A2
:1015B0006E7420756E6C6F61642073756363657300
:1015C0007366756C3F00506C65617365207570675C
:1015D000726164652E004E6577206669726D776171
:1015E00072652076657273696F6E20617661696CD1
:1015F00061626C653A0057616974696E6720666F55
:10160000722050494E44412070726F626520636FB2
:101610006F6C696E670043726173682064657465FE
:10162000637465642E20526573756D6520707269F0
:101630006E743F00437261736820646574656374FF
:1016400065642E0043686F6F7365206578747275EA
:101650006465723A0043686F6F73652066696C61F8
:101660006D656E743A004E6F206D6F76652E005377
:101670007461626C6520616D6269656E7420746569
:101680006D70657261747572652032312D3236432A
:10169000206973206E6565646564206120726967E6
:1016A0006964207374616E6420697320726571755A
:1016B000697265642E00506C656173652072756E89
:1016C0002058595A2063616C6962726174696F6E47
:1016D0002066697273742E005761697420666F7298
:1016E00020757365722E2E2E00435A5058003B53BE
:1016F000006164635F696E6974000A204F726967F4
:10170000696E616C2050727573612069330A202004
:101710002050727573612052657365617263680051
:10172000200A200A200A2000416C6C204461746168
:101730000053657276696365207072657000536846
:10174000697070696E67207072657000537461749F
:10175000697374696373004C616E677561676500D6
:1017600045524153494E4720616C6C20646174615D
:1017700000466163746F72792052455345540044AA
:10178000495341424C454400454E41424C4544007A
:10179000202873656E736F7220626F6172642072AD
:1017A00065766973696F6E3A2553290A0046536559
:1017B0006E736F7220255300494E5434004D4B33E5
:1017C000534D4D553253004E4F4D4B3353002E0168
:1017D0004E4F4354554100414C5446414E004A61DE
:1017E0006E202038203230323200436F6D70696CC9
:1017F00065643A2000286E6F6E652C206465666112
:10180000756C7420636F6E66696729004A616E208B
:10181000203820323032322031343A31343A3137C4
:101820000020332E31302E312D3436393700737489
:1018300061727400534E2075706461746520666136
:10184000696C656400534E20757064617465640052
:10185000435A505800416E206572726F722077684B
:10186000696C652077726974696E6720746F207483
:10187000686520534420436172642E002055706CCB
:101880006F616420696E2070726F67726573730098
:10189000205A3A0020593A0020583A004352415306
:1018A000485F4445544543544544585900435241C8
:1018B00053485F44455445435445445900435241BD
:1018C00053485F444554454354454458004D3239CC
:1018D0000045787465726E616C2053504920666CC7
:1018E0006173680A58464C415348206973206E6FF3
:1018F00074207265732D0A706F6E64696E672E2096
:101900004C616E67756167650A73776974636820F7
:10191000756E617661696C61626C652E002F2F2097
:10192000616374696F6E3A64756D705F6176616949
:101930006C61626C65005072757361206933204D73
:101940004B3353204F4B2E004372617368446574D0
:101950006563742044495341424C454400437261DD
:10196000736844657465637420454E41424C454438
:10197000210045787472756465722066616E20740A
:101980007970653A200058464C415348206E6F7478
:1019900020726573706F6E64696E672E0020205030
:1019A0006C616E6E657242756666657242797465C9
:1019B000733A20002046726565204D656D6F72791F
:1019C0003A2000207C20417574686F723A20002014
:1019D0004C61737420557064617465643A20002012
:1019E000536F667477617265205265736574002069
:1019F0005761746368646F67205265736574002073
:101A000042726F776E206F75742052657365740033
:101A10002045787465726E616C2052657365740040
:101A2000506F7765725570006572726F72207772B1
:101A30006974696E6720746F2066696C6500656EF5
:101A40006473746F7073206869743A2000446F6E19
:101A50006520736176696E672066696C652E006F1C
:101A60006B004D4B3353206669726D776172652050
:101A70006465746563746564206F6E204D4B33201C
:101A80007072696E74657200465720637261736884
:101A90002064657465637465642120596F752063E3
:101AA000616E20636F6E74696E7565207072696E09
:101AB00074696E672E204465627567206461746185
:101AC00020617661696C61626C6520666F7220616D
:101AD0006E616C797369732E20436F6E74616374E9
:101AE00020737570706F727420746F207375626DDF
:101AF00069742064657461696C732E00426C616363
:101B00006B6F7574206F636375727265642E2052FB
:101B100065636F766572207072696E743F005365FD
:101B20006C66746573742077696C6C2062652072D2
:101B3000756E20746F2063616C69627261746520D8
:101B400061636375726174652073656E736F726C27
:101B5000657373207265686F6D696E672E005468D7
:101B6000657265206973207374696C6C2061206EE6
:101B700065656420746F206D616B65205A20636118
:101B80006C6962726174696F6E2E20506C6561734E
:101B90006520666F6C6C6F7720746865206D616E70
:101BA00075616C2C2063686170746572204669727F
:101BB00073742073746570732C2073656374696F1C
:101BC0006E2043616C6962726174696F6E20666C2D
:101BD0006F772E005072696E746572206861732091
:101BE0006E6F74206265656E2063616C69627261FC
:101BF000746564207965742E20506C65617365206E
:101C0000666F6C6C6F7720746865206D616E7561AE
:101C10006C2C2063686170746572204669727374FD
:101C20002073746570732C2073656374696F6E2004
:101C300043616C6962726174696F6E20666C6F7764
:101C40002E004F6C642073657474696E6773206630
:101C50006F756E642E2044656661756C7420504902
:101C6000442C20457374657073206574632E20774F
:101C7000696C6C206265207365742E005761726E0A
:101C8000696E673A20626F7468207072696E74655D
:101C900072207479706520616E64206D6F74686560
:101CA00072626F6172642074797065206368616E1E
:101CB0006765642E005761726E696E673A207072B4
:101CC000696E7465722074797065206368616E67EF
:101CD00065642E005761726E696E673A206D6F748D
:101CE000686572626F6172642074797065206368E0
:101CF000616E6765642E004D363030006673656E28
:101D0000736F725F757064617465202D204D36307D
:101D1000300049522073656E736F72206E6F7420AD
:101D2000726573706F6E64696E672028256429215F
:101D30000A0020573A0020453A00543A005A206CD5
:101D40006976652061646A757374206F7574206F9D
:101D5000662072616E67652E2053657474696E67C4
:101D600020746F20302E20436C69636B20746F20C9
:101D7000636F6E74696E75652E005A206C697665A6
:101D80002061646A757374206F7574206F662072A9
:101D9000616E67652E2053657474696E6720746F79
:101DA00020300020423A0020453A00543A00494E83
:101DB00054340048656174696E67206469736162B8
:101DC0006C6564206279207361666574792074693A
:101DD0006D65722E0046532076302E33206F7220B0
:101DE0006F6C6465720046532076302E34206F721B
:101DF000206E6577657200496E61637469766974F7
:101E0000792053687574646F776E004B494C4C456C
:101E1000442E20005072696E7465722068616C7483
:101E200065642E206B696C6C28292063616C6C657D
:101E30006421004B494C4C3A2025640A004D323253
:101E40003120496E76616C696420657874727564BE
:101E5000657220004D32313820496E76616C6964BC
:101E600020657874727564657220004D31303920B8
:101E7000496E76616C696420657874727564657208
:101E800020004D31303520496E76616C69642065E3
:101E90007874727564657220004D31303420496E5B
:101EA00076616C696420657874727564657220006F
:101EB000504F5745522050414E49432044455445C8
:101EC000435445440055564C4F202D20656E6420E8
:101ED00025640A0055564C4F5F54494E59202D2019
:101EE000656E642025640A0058595A2063616C6944
:101EF00062726174696F6E20616C6C2072696768D0
:101F0000742E20536B65772077696C6C2062652096
:101F1000636F72726563746564206175746F6D615F
:101F2000746963616C6C792E0058595A2063616C36
:101F30006962726174696F6E20616C6C207269678E
:101F400068742E20582F592061786573206172655E
:101F500020736C696768746C7920736B657765644E
:101F60002E20476F6F64206A6F62210058595A20F3
:101F700063616C6962726174696F6E206F6B2E2091
:101F8000582F5920617865732061726520706572E1
:101F900070656E646963756C61722E20436F6E6745
:101FA000726174756C6174696F6E73210058595A4F
:101FB0002063616C6962726174696F6E2066616929
:101FC0006C65642E2052696768742066726F6E7447
:101FD0002063616C6962726174696F6E20706F69F1
:101FE0006E74206E6F7420726561636861626C65E7
:101FF0002E0058595A2063616C6962726174696F6E
:102000006E206661696C65642E2046726F6E742066
:1020100063616C6962726174696F6E20706F696E62
:102020007473206E6F7420726561636861626C65A1
:102030002E0058595A2063616C6962726174696F2D
:102040006E206661696C65642E20506C65617365F5
:1020500020636F6E73756C7420746865206D616E9B
:1020600075616C2E0058595A2063616C6962726107
:1020700074696F6E20636F6D70726F6D69736564E4
:102080002E2052696768742066726F6E74206361D7
:102090006C6962726174696F6E20706F696E742012
:1020A0006E6F7420726561636861626C652E0058A2
:1020B000595A2063616C6962726174696F6E206342
:1020C0006F6D70726F6D697365642E2046726F6EEE
:1020D000742063616C6962726174696F6E20706FE5
:1020E000696E7473206E6F742072656163686162DB
:1020F0006C652E0058595A2063616C696272617474
:10210000696F6E206661696C65642E20426564208B
:1021100063616C6962726174696F6E20706F696E61
:102120007420776173206E6F7420666F756E642EF5
:1021300000506C6561736520706C61636520737419
:1021400065656C207368656574206F6E20686561D5
:10215000746265642E0044697374616E6365206205
:1021600065747765656E20746970206F6620746889
:1021700065206E6F7A7A6C6520616E642074686584
:10218000206265642073757266616365206861739F
:10219000206E6F74206265656E20736574207965AA
:1021A000742E20506C6561736520666F6C6C6F7760
:1021B00020746865206D616E75616C2C20636861A8
:1021C00070746572204669727374207374657073DD
:1021D0002C2073656374696F6E2046697273742076
:1021E0006C617965722063616C6962726174696F98
:1021F0006E2E00506C6163652061207368656574A4
:10220000206F6620706170657220756E6465722043
:10221000746865206E6F7A7A6C6520647572696E79
:1022200067207468652063616C6962726174696FAC
:102230006E206F66206669727374203420706F6937
:102240006E74732E20496620746865206E6F7A7AEA
:102250006C652063617463686573207468652070C1
:10226000617065722C20706F776572206F666620D2
:10227000746865207072696E74657220696D6D6531
:1022800064696174656C792E00506C6561736520BA
:1022900072656D6F766520737465656C2073686513
:1022A00065742066726F6D20686561746265642E66
:1022B00000497320737465656C20736865657420CC
:1022C0006F6E20686561746265643F00536561727A
:1022D0006368696E67206265642063616C6962721D
:1022E0006174696F6E20706F696E74004D65617303
:1022F0007572696E67207265666572656E636520CA
:10230000686569676874206F662063616C696272D2
:102310006174696F6E20706F696E7400506C6561D6
:10232000736520636C65616E20746865206E6F7ADA
:102330007A6C6520666F722063616C696272617489
:10234000696F6E2E20436C69636B207768656E2021
:10235000646F6E652E004175746F20686F6D650047
:102360004D6561737572656420736B6577733A2090
:1023700025662025660A0046697474696E672066C2
:1023800061696C6564203D3E2063616C69627261C5
:1023900074696F6E206661696C65642E0A00436122
:1023A0006C6962726174696F6E20737563636573C3
:1023B000732E0A00416C6C20342063616C69627278
:1023C0006174696F6E20706F696E747320666F75CB
:1023D0006E642E0A00312F3400312F3400312F3932
:1023E0000078797A63616C5F6D656173737572658E
:1023F0005F656E7465720A0078797A63616C5F73E9
:10240000706972616C382063783D25642063793D82
:102410002564207A303D256420647A3D256420724D
:1024200061646975733D25642061643D25640A001B
:1024300078797A63616C5F7365617263685A206E44
:102440006F207369676E616C0A20783D256C64208B
:10245000793D256C64207A3D256C640A00204F4E3E
:102460002D5349474E414C20617420783D2564200E
:10247000793D2564207A3D25642061643D25640A08
:102480000078797A63616C5F7365617263685A2062
:10249000783D256C6420793D256C64207A3D256C5F
:1024A000640A0025640A005363616E20636F756ED1
:1024B00074646F776E3A20000A002530327800206D
:1024C0005B25662025665D206D6D207061747465E6
:1024D000726E2063656E7465720A00205B2566204B
:1024E00025665D5B25665D206D6D2064697665728D
:1024F00067656E63650A000000F000F801FC03FEEA
:1025000007FE07FE07FE07FC03F801F000000000CD
:10251000000000F000F801FC03FC03FC03FC03F8DE
:1025200001F0000000000078797A63616C5F6D65EE
:102530006173737572655F6C656176650A00203C36
:1025400020005741524E494E473A2046726F6E74F2
:1025500020706F696E74206E6F742072656163689D
:1025600061626C652E205920636F6F7264696E61C1
:1025700074653A0000000040410000C04000005C6B
:10258000430000C04000005C4300004643000040A0
:10259000410000464325642F34004974657261741C
:1025A000696F6E3A200043616C6962726174696F91
:1025B0006E206661696C65642120436865636B20E9
:1025C000746865206178657320616E642072756E31
:1025D00020616761696E2E00256920686F757273CE
:1025E000202569206D696E757465730054494D45E9
:1025F0004F55543A004D3131300046756C6C2052C5
:10260000582042756666657200437573746F6D007D
:10261000536174696E200054657874757200536D4F
:102620006F6F74680047312059252D2E3266204582
:10263000252D2E3366004731205825642059252D3D
:102640002E32662045252D2E3366006673656E7327
:102650006F725F636865636B706F696E745F7072D1
:10266000696E74006673656E736F722076302E34F7
:1026700020696E206661756C742072616E676520DA
:10268000342E362D3556202D20756E636F6E6E6597
:1026900063746564006673656E736F7220696E2083
:1026A000666F7262696464656E2072616E67652030
:1026B000312E352D3356202D20636865636B2073D2
:1026C000656E736F7200312E3000312E3500554E1D
:1026D0004B4E4F574E004C413130433A204C696EBF
:1026E00065617220416476616E6365206D6F64651B
:1026F0003A20004C413130433A2041646A7573748A
:10270000656420452D4A65726B3A2000000E131552
:10271000110E00000004120912040000001C1F1119
:10272000111F00000006191803130C00040E1F04EB
:102730001C000000040A0A0A0A11110E001F1511DC
:10274000151F0000000103161C0800000000110AFC
:1027500004110A040C12120C00000000446F6E6594
:10276000207072696E74696E672066696C65004DD1
:102770003131322063616C6C65642E20456D657269
:1027800067656E63792053746F702E005072696EA6
:102790007465722073746F70706564206475652051
:1027A000746F206572726F72732E20466978207480
:1027B0006865206572726F7220616E642075736542
:1027C000204D39393920746F2072657374617274C9
:1027D0002E202854656D706572617475726520696C
:1027E000732072657365742E20536574206974209C
:1027F00061667465722072657374617274696E6764
:1028000029004E6F204C696E65204E756D626572B1
:10281000207769746820636865636B73756D2C201D
:102820004C617374204C696E653A20004E6F2043F2
:102830006865636B73756D2077697468206C696E69
:1028400065206E756D6265722C204C617374204C2E
:10285000696E653A2000636865636B73756D206D02
:1028600069736D617463682C204C617374204C69CA
:102870006E653A20004C696E65204E756D6265721A
:10288000206973206E6F74204C617374204C696EE4
:1028900065204E756D6265722B312C204C6173740E
:1028A000204C696E653A200053544F505045442ED9
:1028B00000756E6B6E6F776E2073746174650020A7
:1028C000302E34206F72206E657765720020302EB6
:1028D00033206F72206F6C646572002563252D3183
:1028E000382E3138532563005B25735D2563005B0B
:1028F00025535D2563002563252D31382E3138534E
:1029000000252E31305320002563252D31382E31FE
:1029100038732563002563252D2E3136532000257D
:1029200063252E3135533A257325336400252D3226
:10293000302E3230530A00457872656D6520737011
:10294000616E206F6620746865205A2076616C7510
:102950006573210025642F39006F6B0A0073746161
:1029600072740A004D4D5532206669726D7761723E
:10297000652076657273696F6E20696E76616C6929
:10298000642E205265717569726564207665727374
:10299000696F6E3A206275696C64206E756D626550
:1029A00072202564206F72206869676865722E0046
:1029B0004D4D55203D3E20276F6B270A004D4D554C
:1029C000203D3E20276F6B270A002564004D4D55A2
:1029D000203D3E20276F6B272C20726573756D6537
:1029E000207072696E740A004D4D552072657472C4
:1029F0007920617474656D7074206E722E20256468
:102A00000A004D4D55203D3E20276F6B270A00419F
:102A10000A004D4D55203C3D202741270A004D36E8
:102A20003030004D363030204155544F0025686815
:102A30007500410A004D4D55203C3D202741270A95
:102A40000050300A004D25640A004D4D55203C3D94
:102A500020274D2564270A0057300A004D4D552088
:102A60003C3D20275730270A0053330A004D4D556F
:102A7000203C3D20275333270A0052300A004D4D99
:102A800055203C3D20275230270A004B25640A0080
:102A90004D4D55203C3D20274B2564270A004525F8
:102AA000640A004D4D55203C3D2027452564270AEA
:102AB0000055300A004D4D55203C3D20275530270C
:102AC0000A0043300A004D4D55203C3D202743303D
:102AD000270A004C25640A004D4D55203C3D202717
:102AE0004C2564270A005425640A004D4D55203CAE
:102AF0003D2027542564270A004D4D55202D2045A3
:102B00004E41424C454400256868750050300A002B
:102B10004D310A004D4D55203C3D20274D312700B9
:102B200050300A004D4D552076657273696F6E20E6
:102B300076616C6964004D4D55203D3E202725642B
:102B40006F6B270A0025750053320A004D4D552042
:102B50003C3D2027533227004D4D55203D3E202738
:102B600025646F6B270A002575004D4D55206E6F4B
:102B70007420726573706F6E64696E67202D2044D7
:102B8000495341424C45440053310A004D4D5520B4
:102B90003C3D2027533127004D4D55203D3E2027F9
:102BA00073746172742700426564206C6576656C8D
:102BB000696E67206661696C65642E2053656E736B
:102BC0006F72206469646E27742074726967676528
:102BD000722E20446562726973206F6E206E6F7A68
:102BE0007A6C653F2057616974696E6720666F7201
:102BF0002072657365742E00506C65617365207575
:102C00007064617465206669726D776172652069B0
:102C10006E20796F7572204D4D55322E20576169A7
:102C200074696E6720666F722072657365742E001A
:102C3000312F390047312058352E302045342E3081
:102C40002046313030302E30004731205A302E327D
:102C5000302046313030302E300047312058353565
:102C60002E30204532352046313430302E3000476A
:102C70003120592D322E302046313030302E300068
:102C8000473120583234302E30204532352E302016
:102C90002046323230302E30004739322045302E37
:102CA00030004731205A302E332046313030302E1C
:102CB00030004731205835352E302045382E302011
:102CC00046323030302E300047312058352E3020FB
:102CD0004533322E302046313830302E30004731E7
:102CE000205835352E30204533322E3020463130B5
:102CF00037332E30004731204634303030004D32EB
:102D00003034205331303030004731205A3520469E
:102D1000373230302E30303000473120452D312EC3
:102D200035303030302046323130302E3030303097
:102D300030004D38330047393000473231004739D1
:102D4000322045302E30004731205835302059355B
:102D5000352045332E36323737330047312058324D
:102D60003030205935352045302E3439333836004F
:102D700047312058323030205937352045332E36F0
:102D80003237373300473120583530205937352016
:102D900045302E343933383600473120583530200D
:102DA0005939352045332E363237373300473120F5
:102DB00058323030205939352045302E34393338A7
:102DC00036004731205832303020593131352045D6
:102DD000332E3632373733004731205835302059BB
:102DE0003131352045302E343933383600473120E3
:102DF00058353020593133352045332E3632373768
:102E00003300473120583230302059313335204596
:102E1000302E3636313734004731205832303020AA
:102E2000593135352045322E363237373300473168
:102E30002058313030205931353520453200473166
:102E40002058373520593135352045322E35004749
:102E500031204631303830004731205A302E31355C
:102E6000302046373230302E303030004731205855
:102E700035302059313535004739322045302E3034
:102E800000473238004D313039004D313930004D76
:102E900031303700726573756C742076616C7565BE
:102EA0003A2025640A0020693D25326420636E744F
:102EB0003D2532642076616C3D2532640A00636CE6
:102EC0007573746572733A0020693D25326420730E
:102ED0007465703D2532640A00736F7274656420F6
:102EE00073616D706C65733A00252D3773003A205D
:102EF0000025642F3600252D32305300203A200063
:102F0000252D32307300542564004731205A302E6D
:102F1000342046313030302E3000473120592D33A7
:102F20002E302046313030302E30004D38330047BF
:102F30003120583130302E30204531322E35204668
:102F4000313030302E30004731205836302E30208E
:102F500045392E302046313030302E3000DE2CC83E
:102F60002CB22CA22C992C802C6F2C5A2C492C344E
:102F70002C3E2D3A2D362D322D192D092DFE2CF5F6
:102F80002C473120583530205933352045252D2EFA
:102F90003366006C2E582E4F2E3E2E2E2E182E02EB
:102FA0002EED2DD82DC22DAD2D992D852D702D5B9B
:102FB0002D472D496E76616C696420504944206329
:102FC000616C2E20726573756C74732E204E6F7455
:102FD0002073746F72656420746F20454550524FA2
:102FE0004D2E004D353030004731205A31352046C6
:102FF00031353030004739310047312058353020E5
:10300000593139302045302046373030300047398B
:1030100030004D3834004D373032204300473120E6
:103020005831302059313830204634303030004764
:1030300031205A31302046313330302E303030009C
:103040004D313430205330004D3130342053300076
:10305000473120452D302E30373530302046323143
:1030600030302E3030303030004D313037004D317F
:103070003137204669727374206C61796572206300
:10308000616C2E00526573756D696E672070726990
:103090006E740050494E44412048656174696E6702
:1030A0000043616C6962726174696F6E20646F6E57
:1030B000650043616C6962726174696E67205A00D1
:1030C00042656420646F6E650042656420486561F6
:1030D00074696E670048656174696E6720646F6E1D
:1030E000652E0048656174696E670050494420632D
:1030F000616C2E2066696E6973686564005049448E
:103100002063616C2E005072696E7420706175735B
:1031100065640025632533642F25642563005A25E3
:10312000362E32662563005A2020202D2D2D2000BA
:1031300025632533642525002D2D2D002533686852
:103140006400253353253373252500555342002051
:10315000202000205344002025753E257500203F87
:103160003E257500204625750020463F002046522A
:103170004D200025632D2D3A2D2D2020002563257F
:103180003375682025632563002563253032753A41
:1031900025303275256325630070012C01900127CD
:1031A00001B0012201C0011D01F00118011002133C
:1031B0000130020E016002090190020401C002FF09
:1031C000000003FA004003F5008003F000D003EB99
:1031D000002004E6007004E100E004DC004005D7B4
:1031E00000C005D2004006CD00D006C8008007C34D
:1031F000003008BE00F008B900C009B400B00AAF42
:1032000000B00BAA00D00CA500000EA000500F9B30
:1032100000C01096005012910000148C00C0158759
:1032200000B0178200B0197D00D01B7800001E731B
:103230000040206E0090226900F024640040275F67
:103240000090295A00E02B5500102E500020304BE2
:103250000010324600E033410090353C0010373713
:103260000070383200A0392D00B03A2800A03B236E
:1032700000603C1E00103D1900903D1400103E0FF0
:1032800000703E0A00C03E0500003F000090137D24
:1032900000B0157800F0177300601A6E00F01C691A
:1032A00000A01F640050225F0020255A00E027552F
:1032B00000902A5000202D4B00A02F4600F03141F5
:1032C0000010343C00F0353700A037320020392D93
:1032D00000603A2800703B2300603C1E00203D192E
:1032E00000C03D1400403E0F00A03E0A00F03E0525
:1032F00000403F0000703FFBFF903FF6FFB03FF102
:10330000FFC03FECFFD03FE7FFE03FE2FFF03FDDD3
:10331000FFF03FD8FF20484F54454E4420544845C5
:10332000524D414C2052554E41574159002048457D
:10333000415442454420544845524D414C20525539
:103340004E4157415900544845524D414C20525529
:103350004E415741590042454420544845524D4141
:103360004C2052554E415741590020544845524D2A
:10337000414C2052554E4157415920285052454802
:1033800045415420484F54454E4429002054484557
:10339000524D414C2052554E4157415920285052D0
:1033A0004548454154204845415442454429005030
:1033B000524548454154204552524F5200424544DF
:1033C0002050524548454154204552524F520045E5
:1033D00072723A20002074726967676572656421B1
:1033E00000486561746572732073776974636865FA
:1033F00064206F66662E20003A2000506C65617371
:1034000065207265737461727400452D6D6F746F01
:10341000722063757272656E74207363616C696E7D
:103420006720656E61626C656400746D6332313370
:10343000305F686F6D655F656E7465722861786571
:10344000735F6D61736B3D307825303278290A00E7
:10345000746D63323133305F686F6D655F657869B5
:103460007420746D63323133305F73675F686F6DE2
:10347000696E675F617865735F6D61736B3D30780E
:10348000253032780A00544D432044524956455263
:10349000204F56455254454D500054656D7065722D
:1034A00061747572652063616C6962726174696FC1
:1034B0006E206661696C65640054656D706572614B
:1034C000747572652063616C6962726174696F6E94
:1034D0002069732066696E697368656420616E6433
:1034E000206163746976652E2054656D702E2063AB
:1034F000616C6962726174696F6E2063616E2062D3
:10350000652064697361626C656420696E206D6515
:103510006E752053657474696E67732D3E54656DC6
:10352000702E2063616C2E0046696C2E2073656ED0
:10353000736F72004578747275646572004D6F76B2
:1035400065205A004D6F76652059004D6F766520D5
:103550005800437261736820646574656374696FB1
:103560006E2063616E0A6265207475726E656420F8
:103570006F6E206F6E6C7920696E0A4E6F726D618E
:103580006C206D6F6465005741524E494E473A0AB0
:10359000437261736820646574656374696F6E0A51
:1035A00064697361626C656420696E0A5374656155
:1035B0006C7468206D6F6465004175746F6C6F6129
:1035C00064696E672066696C616D656E74206176F2
:1035D00061696C61626C65206F6E6C7920776865DB
:1035E0006E2066696C616D656E742073656E736FB5
:1035F00072206973207475726E6564206F6E2E2E52
:103600002E004552524F523A2046696C616D656EEC
:10361000742073656E736F72206973206E6F7420EF
:10362000726573706F6E64696E672C20706C656173
:10363000736520636865636B20636F6E6E6563748A
:10364000696F6E2E004D6F6465206368616E6765FB
:1036500020696E2070726F67726573732E2E2E0054
:1036600054656D70657261747572652063616C6913
:1036700062726174696F6E206661696C65642E2088
:10368000436F6E74696E7565207769746820707217
:10369000657373696E6720746865206B6E6F622E48
:1036A0000054656D70657261747572652063616C3C
:1036B0006962726174696F6E20646F6E652E20435B
:1036C0006F6E74696E7565207769746820707265B5
:1036D0007373696E6720746865206B6E6F622E006D
:1036E0007B5B4552523A00332E31302E31005D5B08
:1036F0004657523A005D5B54494D3A005D5B464E79
:103700004D3A005D5B46454D3A005D5B5043443A9F
:10371000005B5446553A007B5B50524E3A39395D56
:10372000007B5B50524E3A355D007B5B50524E3A07
:10373000305D007B5B50524E3A395D007B5B5052EE
:103740004E3A385D007B5B5245533A305D5B4649EB
:103750004C3A007B5B5245533A315D5B46494C3AEB
:10376000005B50524E3A005B50464E3A305D005B73
:103770004449413A005D5B4154423A005D5B41542B
:10378000303A005D5B5354423A005B5354303A0088
:10379000202030002020310046494E44410050494D
:1037A0004E4441007C3C3E3F2F2A225C0022206692
:1037B00061696C65643A204275666665722066755B
:1037C0006C6C21002200656E717565696E67202240
:1037D00000773235783230636C5F63666D0A00774C
:1037E0003235783230636C5F656E7465720A0073CF
:1037F000746172740A0020746F6F206C6F6E6720A2
:10380000657874727573696F6E2070726576656E17
:103810007465640020636F6C6420657874727573DE
:10382000696F6E2070726576656E746564004E6FA8
:10383000203078464620726563656976656400537A
:10384000656E64696E6720307846460020222573D5
:1038500022002025236C78004449525F4558495482
:10386000004449525F454E5445523A202573202268
:103870002573220A0046696C652073656C65637464
:103880006564002053697A653A200046696C6520BA
:103890006F70656E65643A20004E6F7720667265C2
:1038A00073682066696C653A20004E6F7720646FFC
:1038B000696E672066696C653A20002220706F731C
:1038C000002220706172656E743A22005355425294
:1038D0004F5554494E452043414C4C20746172670A
:1038E00065743A2200747279696E6720746F206380
:1038F000616C6C207375622D67636F646520666907
:103900006C6573207769746820746F6F206D616EC9
:1039100079206C6576656C732E0046696C616D6507
:103920006E742073656E736F7220626F61726420B3
:103930006368616E67652064657465637465643A85
:10394000207265766973696F6E25530A00534420AF
:1039500063617264206F6B006F70656E526F6F747D
:10396000206661696C656400766F6C756D652E69A3
:103970006E6974206661696C656400534420696EE9
:103980006974206661696C006F70656E206661699C
:103990006C65642C2046696C653A200043616E6E4C
:1039A0006F7420656E746572207375626469723A13
:1039B0002000536F7274696E672066696C657300CE
:1039C000536F6D652066696C65732077696C6C2038
:1039D0006E6F7420626520736F727465642E204D63
:1039E00061782E204E6F2E206F662066696C65739D
:1039F00020696E203120666F6C64657220666F727C
:103A000020736F7274696E67206973203130302EB5
:103A10000024F4D43050C38E20C2A24017828B7091
:103A200011127A910D816CD90AA861E108C7586614
:103A300007615143061E4B5D05C145A7041A41119C
:103A400004093D9803713931034036DB0265339137
:103A500002D4305402802E1D02632CEE01752AC55B
:103A600001B028A001102781018F2564012B244B70
:103A700001E0223401AC211F018D200D01801FFCCB
:103A800000841EED00971DDF00B81CD200E61BC6A7
:103A900000201BBC00641AB200B219A8000A19A0C9
:103AA000006A189900D117910040178B00B5168451
:103AB0000031167E00B31579003A157300C7146FF4
:103AC0000058146A00EE1366008813630025135E25
:103AD00000C7125B006C12570015125400C111513F
:103AE0000070114F0021114B00D61049008D104776
:103AF000004610440002104200C00F4000800F3EFC
:103B000000420F3C00060F3B00CB0E3800930E37EF
:103B1000005C0E3500270E3400F30D3200C10D316C
:103B200000900D3000600D2E00320D2D00050D2C83
:103B300000D90C2B00AE0C2900850C29005C0C2749
:103B400000350C27000E0C2600E80B2400C40B24C3
:103B500000A00B23007D0B23005A0B2100390B2101
:103B600000180B2000F80A1F00D90A1E00BB0A1E0D
:103B7000009D0A1D00800A1D00630A1C00470A1BE5
:103B8000002C0A1B00110A1A00F7091A00DD091996
:103B900000C4091900AB091900920917007B091824
:103BA00000630917004C0916003609160020091693
:103BB000000A091500F5081500E0081400CC0814E7
:103BC00000B8081400A4081400900813007D08121F
:103BD000006B081300580812004608120034081140
:103BE00000230811001208110001081100F007104D
:103BF00000E0071000D0071000C0071000B0070F4A
:103C000000A107100091070E0083070F0074070F33
:103C10000065070E0057070E0049070E003B070D11
:103C2000002E070E0020070D0013070D0006070DDC
:103C300000F9060C00ED060D00E0060C00D4060CA1
:103C400000C8060C00BC060C00B0060C00A4060B55
:103C50000099060C008D060B0082060B0077060B00
:103C6000006C060B0061060A0057060B004C060AA2
:103C70000042060A0038060A002E060A0024060A38
:103C8000001A060A001006090007060A00FD0509C9
:103C900000F4050900EB050900E2050900D9050952
:103CA00000D0050900C7050900BE050900B50508D3
:103CB00000AD050800A50509009C0508009405084D
:103CC000008C050800840508007C050800740508C0
:103CD000006C050700650508005D0507005605082E
:103CE000004E050700470507004005080038050796
:103CF00000310507002A050700230507001C0506FB
:103D000000160507000F0507000805060002050755
:103D100000FB040600F5040700EE040600E80406B4
:103D200000E2040700DB040600D5040600CF040609
:103D300000C9040600C3040600BD040600B704065B
:103D400000B1040500AC040600A6040600A00405AA
:103D5000009B04060095040500900406008A0405F3
:103D60000085040500800406007A0405007504053A
:103D700000700405006B040500660405006104057D
:103D8000005C04050057040500520405004D0405BD
:103D90000048040500430405003E0404003A0405FD
:103DA0000035040500300404002C04050027040439
:103DB00000230405001E0404001A04040016040570
:103DC00000110404000D04040009040500040404A7
:103DD0000000040400FC030400F8030400F40304DE
:103DE00000F0030400EC030400E8030400E403040F
:103DF00000E0030400DC030400D8030400D403043F
:103E000000D0030400CC030400C8030300C503036F
:103E10000024F404D9201BC40C5C0E9804C4095F70
:103E20000265077101F405F900FB04B3004804873B
:103E300000C10369005803550003034500BE023A60
:103E4000008402310053022A0029022500040220C6
:103E500000E4011C00C8011900AF0117009801140B
:103E60000084011300710110006101100051010E66
:103E70000043010D0036010B002B010B0020010B4C
:103E800000150109000C01090003010800FB0008EE
:103E900000F3000800EB000700E4000600DE000667
:103EA00000D8000600D2000600CC000500C70005BF
:103EB00000C2000500BD000400B9000400B5000404
:103EC00000B1000400AD000400A9000400A5000337
:103ED00000A20003009F0004009B00030098000361
:103EE000009500020093000300900003008D000283
:103EF000008B00030088000200860002008400039B
:103F000000810002007F0002007D0002007B0002B1
:103F100000790002007700010076000200740002C0
:103F20000072000100710002006F0002006D0001CC
:103F3000006C0002006A00010069000200670001D5
:103F400000660001006500010064000200620001DB
:103F50000061000100600001005F0002005D0001DF
:103F6000005C0001005B0001005A000100590001E3
:103F700000580001005700010056000100550001E3
:103F800000540001005300000053000100520001E2
:103F90000051000100500001004F0001004E0000E0
:103FA000004E0001004D0001004C0001004B0000DC
:103FB000004B0001004A00010049000100480000D8
:103FC00000480001004700010046000000460001D3
:103FD00000450000004500010044000100430000CE
:103FE00000430001004200000042000100410000C7
:103FF0000041000100400001003F0000003F0001BF
:10400000003E0000003E0001003D0000003D0001B8
:10401000003C0000003C0000003C0001003B0000B0
:10402000003B0001003A0000003A000100390000A6
:10403000003900010038000000380000003800019D
:104040000037000000370001003600000036000095
:104050000036000100350000003500000035000189
:104060000034000000340000003400010033000080
:104070000033000000330001003200000032000075
:104080000032000100310000003100000031000169
:10409000003000000030000000300001002F000060
:1040A000002F0000002F0000002F0001002E000054
:1040B000002E0000002E0001002D0000002D000049
:1040C000002D0000002D0001002C0000002C00003D
:1040D000002C0000002C0001002B0000002B000031
:1040E000002B0000002B0001002A0000002A000025
:1040F000002A0000002A0001002900000029000019
:10410000002900000029000000290001002800000B
:1041100000280000002800000028000000280001FE
:1041200000270000002700000027000000270000F3
:1041300000270001002600000026000000260000E5
:1041400000260000002600010025000000250000D8
:1041500000250000002500000025000000250001CA
:1041600000240000002400000024000000240000BF
:1041700000240001002300000023000000230000B1
:1041800000230000002300000023000000230001A2
:104190000022000000220000002200000022000097
:1041A0000022000000220001002100000021000088
:1041B000002100000021000000210000002100007B
:1041C000002100010020000000200000002000006D
:1041D000002000000020000000200000002000005F
:1041E00000200001001F0000001F0000001F000051
:1041F000001F0000001F0000001F0000001F000142
:10420000001E0000001E0000001E0000001E000036
:1042100000452D636F6F6C206D6F646500414C54D9
:1042200046414E206465742E004F6E004F66660056
:104230004261636B005072696E746572206E6F7AB2
:104240007A6C65206469616D657465722064696665
:10425000666572732066726F6D2074686520472DE5
:10426000636F64652E20506C6561736520636865BB
:10427000636B207468652076616C756520696E20BB
:1042800073657474696E67732E205072696E742042
:1042900063616E63656C6C65642E005072696E7448
:1042A0006572206E6F7A7A6C65206469616D6574E1
:1042B000657220646966666572732066726F6D2030
:1042C00074686520472D636F64652E20436F6E749C
:1042D000696E75653F006265746100616C7068614C
:1042E000006465760003000A00010059125052551F
:1042F0005341334446570000002100240027002A80
:10430000002D003000330001010000040107010A04
:104310000100002200250028002B002E003100346F
:104320000002010000050108010B0100002000232C
:1043300000260029002C002F00320000010000039D
:104340000106010901050505050705080808080219
:104350000202020A0A08080404040401010101011E
:104360000101010303030303030303040707070C0D
:104370000C0C0C0C0C0C0C020202020606060606C3
:104380000606060B0B0B0B0B0B0B0B07070A0A0A97
:104390000A0A0A0505050404040808010210202081
:1043A0000808102040102040800201020108040289
:1043B00001010204081020408080402010080402FF
:1043C0000180040201804020100804020108040258
:1043D000010102040810204080010204081020405E
:1043E0008010080408801020400440801020400401
:1043F0008000000A0B02090C0D0E080703040100DF
:1044000000000000000000000000000000000000AC
:104410000000000000000000000000000012111069
:10442000000000000000000000000000000000008C
:10443000000000000000000000000000000000007C
:10444000000000000000001000C90210012C014013
:1044500001220170011801B0010E01F001040150A8
:1044600002FA00B002F0003003E600D003DC009056
:1044700004D2007005C800A006BE000008B400B059
:1044800009AA00D00BA000600E960060118C0000FD
:1044900015820020197800C01D6E00A0226400B0B3
:1044A000275A00902C500000314600E0343C0010A8
:1044B000383200903A2800603C1E00A03D14008075
:1044C0003E0A00203F0000504944204175746F743B
:1044D000756E652066696E69736865642120507524
:1044E0007420746865206C617374204B702C204BB1
:1044F0006920616E64204B6420636F6E7374616E1B
:1045000074732066726F6D2061626F766520696ECC
:10451000746F20436F6E66696775726174696F6E40
:104520002E6800504944204175746F74756E652083
:104530006661696C6564212074696D656F757400CE
:1045400020403A00543A00423A0050494420417514
:10455000746F74756E65206661696C6564212054A2
:10456000656D706572617475726520746F6F206817
:1045700069676800204B643A2000204B693A2000AC
:10458000204B703A200020436C61737369632050A4
:10459000494420002054753A2000204B753A2000F1
:1045A000206D61783A2000206D696E3A2000206409
:1045B0003A200020626961733A2000457874727570
:1045C0006465722066616E2073706565642069732E
:1045D000206C6F776572207468616E2065787065F5
:1045E00063746564005072696E742066616E207336
:1045F00070656564206973206C6F776572207468DC
:10460000616E206578706563746564004D4158542F
:10461000454D50004D415854454D502042454400B1
:104620004D415854454D5020414D4200202D2049C8
:104630006E76616C69642065787472756465722049
:104640006E756D6265722021006572726F723A201C
:10465000756E6B6E6F776E206D6F7665006E6F2076
:104660006D6F766500542D636F646500756E6C6FB9
:104670006164006C6F6164006D6D755F6765745F88
:10468000726573706F6E7365202D20626567696E49
:10469000206D6F76653A20006D6D755F6765745F9C
:1046A000726573706F6E73652829207265747572F8
:1046B0006E696E673A2025640A00556E6C6F6164FE
:1046C000696E672066696E6973686564203200559B
:1046D0006E6C6F6164203200556E6C6F6164696E40
:1046E000672066696E6973686564203100556E6C79
:1046F0006F61642031004D4D552073746172747385
:1047000020726573706F6E64696E67004D4D552041
:104710006E6F7420726573706F6E64696E670046A9
:10472000696C616D656E74206F7574206F662072A0
:10473000616E6765202564200A000000803F5555A2
:1047400085410000803F0000C841000000405555F1
:1047500005420000C03F000048420000204055557F
:104760008542000070C1ABAAA642000060C10000F3
:10477000A0410000C0C00000204100002041ABAAC1
:104780003A41000020C15555D540000048C255555A
:1047900005424D373031204534004D37303120450A
:1047A00033004D373031204532004D373031204510
:1047B00031004D3730312045300046696C616D6500
:1047C0006E74206E72206F7574206F662072616E39
:1047D00067652100206661696C65642E0020737531
:1047E000636365656465642E004D4D552063616E9D
:1047F0005F6C6F61643A004164646974696F6E61F3
:104800006C206C6F616420617474656D7074206ECF
:10481000722E2025640A004D4D55204F4B2E2052FC
:104820006573756D696E672E2E2E004D4D55204FA8
:104830004B2E20526573756D696E6720706F7369BA
:1048400074696F6E2E2E2E004D4D55204F4B2E202D
:10485000526573756D696E672074656D7065726100
:10486000747572652E2E2E00466978207468652056
:10487000697373756520616E64207468656E20705D
:104880007265737320627574746F6E206F6E204D45
:104890004D5520756E69742E0050726573732074C7
:1048A0006865206B6E6F6220746F20726573756D22
:1048B00065206E6F7A7A6C652074656D70657261C3
:1048C000747572652E004D4D55206E6565647320BC
:1048D0007573657220617474656E74696F6E2E00F5
:1048E00043757474696E672066696C616D656E747A
:1048F00000506C656173652072656D6F766520662A
:10490000696C616D656E7420616E64207468656E9B
:1049100020707265737320746865206B6E6F622EF1
:1049200000456A656374696E672066696C616D65D0
:104930006E74004D4D55206C6F6164206661696C2A
:1049400065640025632533642F2564256300506C5E
:10495000656173652070756C6C206F757420666975
:104960006C616D656E7420696D6D656469617465F7
:104970006C7900556E6C6F6164696E672066696C56
:10498000616D656E740052657365740052656E6189
:104990006D65004669727374206C6179657220637D
:1049A000616C2E0053656C65637400537465656CAF
:1049B0002073686565747300537570706F7274004E
:1049C0004661696C207374617473204D4D550046C7
:1049D00061696C20737461747300537461746973DA
:1049E000746963730043616C6962726174696F6EAC
:1049F000004175746F4C6F61642066696C616D6510
:104A00006E74004375742066696C616D656E740028
:104A1000456A6563742066696C616D656E740055E6
:104A20006E6C6F61642066696C616D656E74004CBC
:104A30006F616420746F206E6F7A7A6C65004C6FC2
:104A400061642066696C616D656E74004E6F205301
:104A5000442063617264005072696E742066726FE4
:104A60006D20534400526573756D65207072696ED8
:104A700074005061757365207072696E74005072B5
:104A800065686561740054756E65004C69766520D3
:104A900061646A757374205A00496E666F2073638F
:104AA0007265656E0046696E697368696E67206D30
:104AB0006F76656D656E7473004272696768746EB7
:104AC000657373004173736973740053696C656E29
:104AD00074004F6E6365004C6F756400536F756EA4
:104AE00064004D4D55204D6F6465004372617368DD
:104AF000206465742E00537465616C7468004E6F99
:104B0000726D616C0046616E7320636865636B0053
:104B1000506175736500436F6E742E0046532041DB
:104B20006374696F6E0046696C2E2073656E736FD7
:104B300072004368616E67652066696C616D656EC1
:104B40007400466C6F77005370656564004E2F41AA
:104B5000004D61676E65747320636F6D702E005A2F
:104B60002D70726F6265206E722E004D6573680045
:104B70004572723A205052494E542046414E2045CB
:104B800052524F52004572723A20455854522E20CC
:104B900046414E204552524F52002F2F20616374E0
:104BA000696F6E3A706175736564002F2F206163C1
:104BB00074696F6E3A726573756D6564002F2F208E
:104BC000616374696F6E3A726573756D65004D3619
:104BD000303000436F6F6C646F776E0050726568A1
:104BE00065617420746865206E6F7A7A6C65210047
:104BF0004552524F523A0046696C616D656E7420A1
:104C0000657874727564696E6720262077697468A8
:104C100020636F727265637420636F6C6F723F0004
:104C20004175746F6C6F6164696E672066696C6151
:104C30006D656E74206973206163746976652C20DC
:104C40006A75737420707265737320746865206B65
:104C50006E6F6220616E6420696E73657274206687
:104C6000696C616D656E742E2E2E005072696E74C3
:104C70002074696D650046696C616D656E742075A0
:104C800073656400546F74616C207072696E742077
:104C900074696D6500546F74616C2066696C616D38
:104CA000656E74005269676874004C6566740059DB
:104CB0002064697374616E63652066726F6D206D28
:104CC000696E0053657665726520736B6577005376
:104CD0006C6967687420736B6577004D65617375E7
:104CE00072656420736B6577005B303B305D2070CC
:104CF0006F696E74206F66667365740041646A75CF
:104D00007374696E67205A3A005265617220736944
:104D10006465205B756D5D0046726F6E742073690B
:104D200064655B756D5D00526967687420736964C2
:104D3000655B756D5D004C65667420736964652004
:104D40005B756D5D005365742074656D706572618F
:104D5000747572653A00464C4558202D2020323437
:104D6000302F35300050502020202D202032353477
:104D70002F3130300048495053202D20203232301E
:104D80002F3130300041425320202D202032353544
:104D90002F3130300050564220202D202032313526
:104DA0002F37350050432020202D20203237352F3B
:104DB0003131300041534120202D20203236302F18
:104DC0003130350050455420202D20203233302FF3
:104DD000383500504C4120202D20203139352F36D8
:104DE00035006E6F7A7A6C65202D20203235302F99
:104DF00030006661726D2020202D20203235302F4A
:104E0000383000252D31322E313253252B382E31BA
:104E1000660045787472756465723A006D6D00596C
:104E2000005800583A00593A005A3A002563252D97
:104E300031332E313353252B352E33660025533A2B
:104E40000A2531382E32666D200A25533A0A25315B
:104E5000306C6468202530326868646D20253032FB
:104E6000686864730025533A0A2531382E32666D1E
:104E7000200A25533A0A2531306C646420253032EB
:104E800068686468202530326868646D0025362EB5
:104E900032666D6D0025530A25530A25533A0A25BB
:104EA000533A0025332E32660100252D31342E3140
:104EB00034533A0A25530A252D31342E3134533ACE
:104EC00025332E3266010A252D31342E3134533AE2
:104ED00025332E32660100555341525432207278E8
:104EE0002046756C6C2121210053657474696E67CE
:104EF000732053746F7265640053746F726564201D
:104F000073657474696E677320726574726965760F
:104F100065640048617264636F646564204465661B
:104F200061756C742053657474696E6773204C6F7F
:104F30006164656400563200000000C8420000C889
:104F4000420000C84300008C430000484300004872
:104F500043000040410000F042E8030000E8030085
:104F600000C80000008813000000409C4400409CE2
:104F7000440000000000000000204E00000000205F
:104F80004100002041CDCCCC3E000090400000000C
:104F9000000000000000000000CDCCCC3E3D0A81A6
:104FA00041FF08433EB099AB438F42FC42E65A347E
:104FB0003F4C62B045000000000040400000344219
:104FC000000000000000000000000041000000E0C0
:104FD0003F0000C8420000C842000040410000F00D
:104FE00042C0030000C0030000C800000088130096
:104FF000001010102000409C44256C7520627974CC
:105000006573207772697474656E20746F20255300
:105010002061742061646472657373203078253078
:10502000346C780A00442564202D20526561642F79
:1050300057726974652025530A0078797A63616C28
:105040005F73706972616C322063783D2564206300
:10505000793D2564207A303D256420647A3D2564BD
:10506000207261646975733D25642061643D256427
:105070000A005061747465726E2063656E746572A7
:10508000205B25662025665D2C206D617463682099
:10509000256625250A00205B25662C2025665D5B9C
:1050A00025665D2066696E616C20636972636C655C
:1050B0000A00746D63323133305F676F746F5F73F2
:1050C00074657020256420256420256420256420D3
:1050D0000A00776F726C6420636F6F7264696E612F
:1050E0007465733A2028252E33662C20252E3366CE
:1050F0002C20252E3366290A0043757272656E7462
:1051000020706F73205A5F415849533A252E3366F9
:105110000A43757272656E7420706F7320455F412B
:105120005849533A252E33660A0041667465722049
:1051300077616974696E6720666F722074656D703F
:105140003A0A43757272656E7420706F7320585FEF
:10515000415849533A252E33660A43757272656E7B
:105160007420706F7320595F415849533A252E338C
:10517000660A007265636F7665725F6D6163686968
:105180006E655F73746174655F61667465725F708C
:105190006F7765725F70616E69632C20696E6974E8
:1051A00069616C200050525553412075766C6F0038
:1051B0004734205330004D32362053256C75004D56
:1051C0003130362053004D323230205325640047B1
:1051D0003120462564004D383200473932204500E1
:1051E0004731204525302E33662046323730300097
:1051F0004D323034205025662052256620542566D5
:10520000004731205A2566005052555341204D42E7
:105210004C205631004731205825662059256620FC
:10522000463330303000506F736974696F6E20728E
:105230006561642066726F6D20656570726F6D3A8E
:10524000004D3233202573002E67636F002C2066DB
:105250006565646D756C7469706C793A0046656556
:1052600064726174653A0047312045252D302E3334
:1052700066204632373030004731204535204631F0
:105280003230004D3833004D313039205325640021
:105290004D31393020532564004D313034205325B1
:1052A000640047323820582059004731205A252EB3
:1052B00033662046383030004731205A252D302EB5
:1052C00033662046252D302E336600473120452594
:1052D0002D302E3366204632373030004D383300C3
:1052E00000002110422063308440A550C660E77062
:1052F000088129914AA16BB18CC1ADD1CEE1EFF10A
:105300003112100273325222B5529442F772D662B1
:10531000399318837BB35AA3BDD39CC3FFF3DEE359
:105320006224433420040114E664C774A444855401
:105330006AA54BB528850995EEE5CFF5ACC58DD5A9
:105340005336722611163006D776F6669556B44651
:105350005BB77AA719973887DFF7FEE79DD7BCC7F9
:10536000C448E5588668A7784008611802282338A1
:10537000CCC9EDD98EE9AFF9488969990AA92BB949
:10538000F55AD44AB77A966A711A500A333A122AF1
:10539000FDDBDCCBBFFB9EEB799B588B3BBB1AAB99
:1053A000A66C877CE44CC55C222C033C600C411C41
:1053B000AEED8FFDECCDCDDD2AAD0BBD688D499DE9
:1053C000977EB66ED55EF44E133E322E511E700E91
:1053D0009FFFBEEFDDDFFCCF1BBF3AAF599F788F39
:1053E0008891A981CAB1EBA10CD12DC14EF16FE119
:1053F0008010A100C230E320045025404670676051
:10540000B9839893FBA3DAB33DC31CD37FE35EF368
:10541000B1029012F322D2323542145277625672A0
:10542000EAB5CBA5A89589856EF54FE52CD50DC5B8
:10543000E234C324A01481046674476424540544F0
:10544000DBA7FAB79987B8975FE77EF71DC73CD708
:10545000D326F2369106B016576676761546345640
:105460004CD96DC90EF92FE9C899E9898AB9ABA958
:105470004458654806782768C018E1088238A32890
:105480007DCB5CDB3FEB1EFBF98BD89BBBAB9ABBA8
:10549000754A545A376A167AF10AD01AB32A923AE0
:1054A0002EFD0FED6CDD4DCDAABD8BADE89DC98DF8
:1054B000267C076C645C454CA23C832CE01CC10C30
:1054C0001FEF3EFF5DCF7CDF9BAFBABFD98FF89F48
:1054D000176E367E554E745E932EB23ED10EF01E80
:1054E0005265636F766572696E67207072696E745B
:1054F00000506C656173652077616974002F2F20FF
:10550000616374696F6E3A7061757365002573200D
:105510002534642052504D0A2573202534642052CE
:10552000504D0A00686F77746F2E70727573613317
:10553000642E636F6D00666F72756D2E7072757379
:105540006133642E636F6D00707275736133642E06
:10555000636F6D005072696E742046414E004E6F4D
:105560007A7A6C652046414E004D4D5520706F771C
:105570006572206661696C73004D4D55206C6F61DA
:1055800064206661696C73004D4D55206661696CDD
:105590007300546F74616C206661696C7572657319
:1055A0000043726173680046696C2E2072756E6FDD
:1055B00075747300506F776572206661696C7572DF
:1055C0006573004C617374207072696E742066613B
:1055D000696C7572657300546F74616C004C617313
:1055E00074207072696E7400416D6269656E74003A
:1055F00044756D70206D656D6F727900566F6C74B7
:10560000616765730054656D70657261747572656C
:10561000730042656C742073746174757300536514
:105620006E736F7220696E666F0045787472756470
:10563000657220696E666F0058595A2063616C2E3E
:105640002064657461696C7300756E6B6E6F776E44
:10565000004D4D553220636F6E6E65637465640056
:10566000446174653A00746F20756E6C6F616420DC
:1056700066696C616D656E7400746F206C6F616437
:105680002066696C616D656E74005072657373207D
:10569000746865206B6E6F62005072656865617436
:1056A000696E6720746F2063757400507265686559
:1056B0006174696E6720746F20656A656374005059
:1056C000726568656174696E6720746F20756E6CB1
:1056D0006F61640050726568656174696E672074FB
:1056E0006F206C6F61640025530A20252D31362E02
:1056F000313653252D33640A20252D31362E31368F
:1057000053252D33640025530A20252D31362E31A3
:105710003653252D33640A20252D31362E3136534C
:10572000252D33640A20252D31362E313653252D73
:1057300033640025530A20252D31362E313653256A
:105740002D33640A20252D31362E313653252D3345
:10575000640A20252D372E37535820252D336420F9
:10576000205920252D336400202573253364012022
:105770000A000A204952203A2020202020202025FB
:10578000332E31665600205057523A2020202020D8
:105790002025342E3166560A204245443A202020E6
:1057A00020202025342E3166560025530A2058200B
:1057B00025640A20592025640025752E25752E257F
:1057C000752E257500446562756700537461636BBF
:1057D000206372617368005744522063726173687A
:1057E0000025730020005072696E74657220495064
:1057F00020416464723A002573002000466C617396
:105800006841697220495020416464723A004D4DEC
:105810005532202020202020204E2F410025642EAC
:1058200025642E25642D2564002046573A004669DC
:105830006C2E2073656E736F7220762E3A004A616B
:105840006E202038203230323200453344763666BE
:10585000756C6C0045494E53795F31306100315FA2
:1058600037356D6D5F4D4B33002D2D2D2D2D2D2D8D
:105870002D2D2D2D2D00207265706F20556E6B6EB5
:105880006F776E0020332E31302E312D343639377C
:10589000004669726D776172653A004D37303200AB
:1058A0004D373031004D373032004D373031004701
:1058B0003830004D3435004D3435205A00473736E6
:1058C0000057697A6172642073746174653A2025A7
:1058D000640A0043616C69627261746500536865B3
:1058E000657420252E37730A5A206F6666736574B7
:1058F0003A20252B312E3366206D6D0A2563436FC8
:105900006E74696E75650A256353746172742066DE
:10591000726F6D207A65726F00506C6561736520DF
:105920006C6F61642066696C616D656E7420666978
:105930007273742E003E43616E63656C0046696C41
:10594000616D656E740053656C6563742066696C87
:10595000616D656E743A0052756E6E696E672057A0
:10596000697A6172642077696C6C2064656C657417
:10597000652063757272656E742063616C69627212
:105980006174696F6E20726573756C747320616EDB
:10599000642073746172742066726F6D2074686520
:1059A00020626567696E6E696E672E20436F6E7444
:1059B000696E75653F0050726568656174696E67F0
:1059C000206E6F7A7A6C652E20506C65617365204D
:1059D000776169742E004C6F6164696E6720666937
:1059E0006C616D656E7400506C6561736520696EE5
:1059F000736572742066696C616D656E7420696E82
:105A0000746F207468652065787472756465722C93
:105A1000207468656E2070726573732074686520E9
:105A20006B6E6F6220746F206C6F61642069742EDE
:105A300000506C6561736520696E736572742066D1
:105A4000696C616D656E7420696E746F2074686531
:105A50002066697273742074756265206F662074A5
:105A60006865204D4D552C207468656E20707265F8
:105A7000737320746865206B6E6F6220746F206C86
:105A80006F61642069742E00546865207072696EBD
:105A90007465722077696C6C207374617274207005
:105AA00072696E74696E672061207A69672D7A6108
:105AB00067206C696E652E20526F74617465207466
:105AC0006865206B6E6F6220756E74696C20796FEB
:105AD0007520726561636820746865206F707469F1
